{
  "_format": "hh-sol-artifact-1",
  "contractName": "TopG",
  "sourceName": "contracts/TopG.sol",
  "abi": [
    {
      "inputs": [
        {
          "internalType": "uint256",
          "name": "o1",
          "type": "uint256"
        },
        {
          "internalType": "uint256",
          "name": "o2",
          "type": "uint256"
        },
        {
          "internalType": "uint256",
          "name": "o3",
          "type": "uint256"
        },
        {
          "internalType": "uint256",
          "name": "o4",
          "type": "uint256"
        }
      ],
      "name": "bet",
      "outputs": [],
      "stateMutability": "payable",
      "type": "function"
    },
    {
      "inputs": [
        {
          "internalType": "address",
          "name": "p1",
          "type": "address"
        },
        {
          "internalType": "address",
          "name": "p2",
          "type": "address"
        }
      ],
      "name": "create_match",
      "outputs": [],
      "stateMutability": "nonpayable",
      "type": "function"
    },
    {
      "inputs": [],
      "name": "current_match_id",
      "outputs": [
        {
          "internalType": "uint256",
          "name": "",
          "type": "uint256"
        }
      ],
      "stateMutability": "view",
      "type": "function"
    },
    {
      "inputs": [],
      "name": "distribute",
      "outputs": [],
      "stateMutability": "payable",
      "type": "function"
    },
    {
      "inputs": [
        {
          "internalType": "uint256",
          "name": "",
          "type": "uint256"
        },
        {
          "internalType": "address",
          "name": "",
          "type": "address"
        }
      ],
      "name": "match_to_stakers",
      "outputs": [
        {
          "internalType": "uint256",
          "name": "option1",
          "type": "uint256"
        },
        {
          "internalType": "uint256",
          "name": "option2",
          "type": "uint256"
        },
        {
          "internalType": "uint256",
          "name": "option3",
          "type": "uint256"
        },
        {
          "internalType": "uint256",
          "name": "option4",
          "type": "uint256"
        }
      ],
      "stateMutability": "view",
      "type": "function"
    },
    {
      "inputs": [
        {
          "internalType": "uint256",
          "name": "",
          "type": "uint256"
        },
        {
          "internalType": "uint256",
          "name": "",
          "type": "uint256"
        }
      ],
      "name": "match_to_stakers_list",
      "outputs": [
        {
          "internalType": "address",
          "name": "",
          "type": "address"
        }
      ],
      "stateMutability": "view",
      "type": "function"
    },
    {
      "inputs": [
        {
          "internalType": "uint256",
          "name": "",
          "type": "uint256"
        }
      ],
      "name": "matches",
      "outputs": [
        {
          "internalType": "address",
          "name": "p1",
          "type": "address"
        },
        {
          "internalType": "address",
          "name": "p2",
          "type": "address"
        },
        {
          "internalType": "uint8",
          "name": "choice1",
          "type": "uint8"
        },
        {
          "internalType": "uint8",
          "name": "choice2",
          "type": "uint8"
        },
        {
          "internalType": "uint8",
          "name": "outcome",
          "type": "uint8"
        }
      ],
      "stateMutability": "view",
      "type": "function"
    },
    {
      "inputs": [],
      "name": "player1",
      "outputs": [
        {
          "internalType": "address",
          "name": "",
          "type": "address"
        }
      ],
      "stateMutability": "view",
      "type": "function"
    },
    {
      "inputs": [],
      "name": "player2",
      "outputs": [
        {
          "internalType": "address",
          "name": "",
          "type": "address"
        }
      ],
      "stateMutability": "view",
      "type": "function"
    },
    {
      "inputs": [],
      "name": "register",
      "outputs": [],
      "stateMutability": "payable",
      "type": "function"
    },
    {
      "inputs": [],
      "name": "result",
      "outputs": [],
      "stateMutability": "nonpayable",
      "type": "function"
    },
    {
      "inputs": [
        {
          "internalType": "uint8",
          "name": "choice_1",
          "type": "uint8"
        }
      ],
      "name": "update_choice1",
      "outputs": [],
      "stateMutability": "nonpayable",
      "type": "function"
    },
    {
      "inputs": [
        {
          "internalType": "uint8",
          "name": "choice_2",
          "type": "uint8"
        }
      ],
      "name": "update_choice2",
      "outputs": [],
      "stateMutability": "nonpayable",
      "type": "function"
    }
  ],
  "bytecode": "0x60806040526000600155600060025560006003556000600455600060055560006006556000600860146101000a81548160ff02191690831515021790555034801561004957600080fd5b5061237c806100596000396000f3fe6080604052600436106100c25760003560e01c8063567bb0b61161007f57806365372147116100595780636537214714610253578063b02cfb4c1461026a578063d30895e414610293578063e4fc6b6d146102be576100c2565b8063567bb0b6146101e357806359a5f12d146101ff5780636410faa01461022a576100c2565b806308454e71146100c75780631aa3a0081461010457806326cf1a321461010e5780632d23d0ed146101375780634768d4ef146101625780634830214e146101a3575b600080fd5b3480156100d357600080fd5b506100ee60048036038101906100e99190611d9a565b6102c8565b6040516100fb9190611e1b565b60405180910390f35b61010c610316565b005b34801561011a57600080fd5b5061013560048036038101906101309190611e62565b61047b565b005b34801561014357600080fd5b5061014c610614565b6040516101599190611eb1565b60405180910390f35b34801561016e57600080fd5b5061018960048036038101906101849190611ecc565b61061a565b60405161019a959493929190611f15565b60405180910390f35b3480156101af57600080fd5b506101ca60048036038101906101c59190611f68565b6106c7565b6040516101da9493929190611fa8565b60405180910390f35b6101fd60048036038101906101f89190611fed565b610704565b005b34801561020b57600080fd5b50610214610898565b6040516102219190611e1b565b60405180910390f35b34801561023657600080fd5b50610251600480360381019061024c9190612080565b6108be565b005b34801561025f57600080fd5b506102686109cc565b005b34801561027657600080fd5b50610291600480360381019061028c9190612080565b610cbb565b005b34801561029f57600080fd5b506102a8610dc9565b6040516102b59190611e1b565b60405180910390f35b6102c6610def565b005b600a60205281600052604060002081815481106102e457600080fd5b906000526020600020016000915091509054906101000a900473ffffffffffffffffffffffffffffffffffffffff1681565b60026006541061035b576040517f08c379a00000000000000000000000000000000000000000000000000000000081526004016103529061210a565b60405180910390fd5b6000600654036103ab5733600760006101000a81548173ffffffffffffffffffffffffffffffffffffffff021916908373ffffffffffffffffffffffffffffffffffffffff1602179055506103ed565b33600860006101000a81548173ffffffffffffffffffffffffffffffffffffffff021916908373ffffffffffffffffffffffffffffffffffffffff1602179055505b6006600081548092919061040090612159565b9190505550600260065403610479576001600860146101000a81548160ff021916908315150217905550610478600760009054906101000a900473ffffffffffffffffffffffffffffffffffffffff16600860009054906101000a900473ffffffffffffffffffffffffffffffffffffffff1661047b565b5b565b6001600081548092919061048e90612159565b919050555060006040518060a001604052808473ffffffffffffffffffffffffffffffffffffffff1681526020018373ffffffffffffffffffffffffffffffffffffffff168152602001600060ff168152602001600060ff168152602001600060ff16815250908060018154018082558091505060019003906000526020600020906002020160009091909190915060008201518160000160006101000a81548173ffffffffffffffffffffffffffffffffffffffff021916908373ffffffffffffffffffffffffffffffffffffffff16021790555060208201518160010160006101000a81548173ffffffffffffffffffffffffffffffffffffffff021916908373ffffffffffffffffffffffffffffffffffffffff16021790555060408201518160010160146101000a81548160ff021916908360ff16021790555060608201518160010160156101000a81548160ff021916908360ff16021790555060808201518160010160166101000a81548160ff021916908360ff16021790555050505050565b60015481565b6000818154811061062a57600080fd5b90600052602060002090600202016000915090508060000160009054906101000a900473ffffffffffffffffffffffffffffffffffffffff16908060010160009054906101000a900473ffffffffffffffffffffffffffffffffffffffff16908060010160149054906101000a900460ff16908060010160159054906101000a900460ff16908060010160169054906101000a900460ff16905085565b6009602052816000526040600020602052806000526040600020600091509150508060000154908060010154908060020154908060030154905084565b600a60006001805461071691906121a1565b8152602001908152602001600020339080600181540180825580915050600190039060005260206000200160009091909190916101000a81548173ffffffffffffffffffffffffffffffffffffffff021916908373ffffffffffffffffffffffffffffffffffffffff16021790555060405180608001604052808581526020018481526020018381526020018281525060096000600180546107b891906121a1565b815260200190815260200160002060003373ffffffffffffffffffffffffffffffffffffffff1673ffffffffffffffffffffffffffffffffffffffff16815260200190815260200160002060008201518160000155602082015181600101556040820151816002015560608201518160030155905050836002600082825461084091906121d5565b92505081905550826003600082825461085991906121d5565b92505081905550816004600082825461087291906121d5565b92505081905550806005600082825461088b91906121d5565b9250508190555050505050565b600860009054906101000a900473ffffffffffffffffffffffffffffffffffffffff1681565b6000600180546108ce91906121a1565b815481106108df576108de612209565b5b906000526020600020906002020160000160009054906101000a900473ffffffffffffffffffffffffffffffffffffffff1673ffffffffffffffffffffffffffffffffffffffff163373ffffffffffffffffffffffffffffffffffffffff161461097e576040517f08c379a000000000000000000000000000000000000000000000000000000000815260040161097590612284565b60405180910390fd5b8060006001805461098f91906121a1565b815481106109a05761099f612209565b5b906000526020600020906002020160010160146101000a81548160ff021916908360ff16021790555050565b6000600160ff166000600180546109e391906121a1565b815481106109f4576109f3612209565b5b906000526020600020906002020160010160149054906101000a900460ff1660ff16148015610a685750600160ff16600060018054610a3391906121a1565b81548110610a4457610a43612209565b5b906000526020600020906002020160010160159054906101000a900460ff1660ff16145b15610a765760019050610c6d565b600260ff16600060018054610a8b91906121a1565b81548110610a9c57610a9b612209565b5b906000526020600020906002020160010160149054906101000a900460ff1660ff16148015610b105750600260ff16600060018054610adb91906121a1565b81548110610aec57610aeb612209565b5b906000526020600020906002020160010160159054906101000a900460ff1660ff16145b15610b1e5760029050610c6c565b600160ff16600060018054610b3391906121a1565b81548110610b4457610b43612209565b5b906000526020600020906002020160010160149054906101000a900460ff1660ff16148015610bb85750600260ff16600060018054610b8391906121a1565b81548110610b9457610b93612209565b5b906000526020600020906002020160010160159054906101000a900460ff1660ff16145b15610bc65760039050610c6b565b600260ff16600060018054610bdb91906121a1565b81548110610bec57610beb612209565b5b906000526020600020906002020160010160149054906101000a900460ff1660ff16148015610c605750600160ff16600060018054610c2b91906121a1565b81548110610c3c57610c3b612209565b5b906000526020600020906002020160010160159054906101000a900460ff1660ff16145b15610c6a57600490505b5b5b5b80600060018054610c7e91906121a1565b81548110610c8f57610c8e612209565b5b906000526020600020906002020160010160166101000a81548160ff021916908360ff16021790555050565b600060018054610ccb91906121a1565b81548110610cdc57610cdb612209565b5b906000526020600020906002020160010160009054906101000a900473ffffffffffffffffffffffffffffffffffffffff1673ffffffffffffffffffffffffffffffffffffffff163373ffffffffffffffffffffffffffffffffffffffff1614610d7b576040517f08c379a0000000000000000000000000000000000000000000000000000000008152600401610d7290612284565b60405180910390fd5b80600060018054610d8c91906121a1565b81548110610d9d57610d9c612209565b5b906000526020600020906002020160010160156101000a81548160ff021916908360ff16021790555050565b600760009054906101000a900473ffffffffffffffffffffffffffffffffffffffff1681565b600160ff16600060018054610e0491906121a1565b81548110610e1557610e14612209565b5b906000526020600020906002020160010160169054906101000a900460ff1660ff16036110ff576000600554600454600354610e5191906121d5565b610e5b91906121d5565b905060005b600a600060018054610e7291906121a1565b8152602001908152602001600020805490508110156110f8576000600254836009600060018054610ea391906121a1565b81526020019081526020016000206000600a600060018054610ec591906121a1565b81526020019081526020016000208681548110610ee557610ee4612209565b5b9060005260206000200160009054906101000a900473ffffffffffffffffffffffffffffffffffffffff1673ffffffffffffffffffffffffffffffffffffffff1673ffffffffffffffffffffffffffffffffffffffff16815260200190815260200160002060000154610f5891906122a4565b610f629190612315565b90506009600060018054610f7691906121a1565b81526020019081526020016000206000600a600060018054610f9891906121a1565b81526020019081526020016000208481548110610fb857610fb7612209565b5b9060005260206000200160009054906101000a900473ffffffffffffffffffffffffffffffffffffffff1673ffffffffffffffffffffffffffffffffffffffff1673ffffffffffffffffffffffffffffffffffffffff168152602001908152602001600020600001548161102c91906121d5565b9050600a60006001805461104091906121a1565b815260200190815260200160002082815481106110605761105f612209565b5b9060005260206000200160009054906101000a900473ffffffffffffffffffffffffffffffffffffffff1673ffffffffffffffffffffffffffffffffffffffff166108fc670de0b6b3a7640000836110b891906122a4565b9081150290604051600060405180830381858888f193505050501580156110e3573d6000803e3d6000fd5b505080806110f090612159565b915050610e60565b5050611d1a565b600260ff1660006001805461111491906121a1565b8154811061112557611124612209565b5b906000526020600020906002020160010160169054906101000a900460ff1660ff160361158b576000600260055460045460025461116391906121d5565b61116d91906121d5565b6111779190612315565b905060005b600a60006001805461118e91906121a1565b8152602001908152602001600020805490508110156114145760006003548360096000600180546111bf91906121a1565b81526020019081526020016000206000600a6000600180546111e191906121a1565b8152602001908152602001600020868154811061120157611200612209565b5b9060005260206000200160009054906101000a900473ffffffffffffffffffffffffffffffffffffffff1673ffffffffffffffffffffffffffffffffffffffff1673ffffffffffffffffffffffffffffffffffffffff1681526020019081526020016000206001015461127491906122a4565b61127e9190612315565b9050600960006001805461129291906121a1565b81526020019081526020016000206000600a6000600180546112b491906121a1565b815260200190815260200160002084815481106112d4576112d3612209565b5b9060005260206000200160009054906101000a900473ffffffffffffffffffffffffffffffffffffffff1673ffffffffffffffffffffffffffffffffffffffff1673ffffffffffffffffffffffffffffffffffffffff168152602001908152602001600020600101548161134891906121d5565b9050600a60006001805461135c91906121a1565b8152602001908152602001600020828154811061137c5761137b612209565b5b9060005260206000200160009054906101000a900473ffffffffffffffffffffffffffffffffffffffff1673ffffffffffffffffffffffffffffffffffffffff166108fc670de0b6b3a7640000836113d491906122a4565b9081150290604051600060405180830381858888f193505050501580156113ff573d6000803e3d6000fd5b5050808061140c90612159565b91505061117c565b5060006001805461142591906121a1565b8154811061143657611435612209565b5b906000526020600020906002020160000160009054906101000a900473ffffffffffffffffffffffffffffffffffffffff1673ffffffffffffffffffffffffffffffffffffffff166108fc6002670de0b6b3a76400008461149791906122a4565b6114a19190612315565b9081150290604051600060405180830381858888f193505050501580156114cc573d6000803e3d6000fd5b506000600180546114dd91906121a1565b815481106114ee576114ed612209565b5b906000526020600020906002020160010160009054906101000a900473ffffffffffffffffffffffffffffffffffffffff1673ffffffffffffffffffffffffffffffffffffffff166108fc6002670de0b6b3a76400008461154f91906122a4565b6115599190612315565b9081150290604051600060405180830381858888f19350505050158015611584573d6000803e3d6000fd5b5050611d19565b600360ff166000600180546115a091906121a1565b815481106115b1576115b0612209565b5b906000526020600020906002020160010160169054906101000a900460ff1660ff160361195357600060026005546003546002546115ef91906121d5565b6115f991906121d5565b6116039190612315565b905060005b600a60006001805461161a91906121a1565b8152602001908152602001600020805490508110156118a057600060045483600960006001805461164b91906121a1565b81526020019081526020016000206000600a60006001805461166d91906121a1565b8152602001908152602001600020868154811061168d5761168c612209565b5b9060005260206000200160009054906101000a900473ffffffffffffffffffffffffffffffffffffffff1673ffffffffffffffffffffffffffffffffffffffff1673ffffffffffffffffffffffffffffffffffffffff1681526020019081526020016000206002015461170091906122a4565b61170a9190612315565b9050600960006001805461171e91906121a1565b81526020019081526020016000206000600a60006001805461174091906121a1565b815260200190815260200160002084815481106117605761175f612209565b5b9060005260206000200160009054906101000a900473ffffffffffffffffffffffffffffffffffffffff1673ffffffffffffffffffffffffffffffffffffffff1673ffffffffffffffffffffffffffffffffffffffff16815260200190815260200160002060020154816117d491906121d5565b9050600a6000600180546117e891906121a1565b8152602001908152602001600020828154811061180857611807612209565b5b9060005260206000200160009054906101000a900473ffffffffffffffffffffffffffffffffffffffff1673ffffffffffffffffffffffffffffffffffffffff166108fc670de0b6b3a76400008361186091906122a4565b9081150290604051600060405180830381858888f1935050505015801561188b573d6000803e3d6000fd5b5050808061189890612159565b915050611608565b506000600180546118b191906121a1565b815481106118c2576118c1612209565b5b906000526020600020906002020160000160009054906101000a900473ffffffffffffffffffffffffffffffffffffffff1673ffffffffffffffffffffffffffffffffffffffff166108fc670de0b6b3a76400008361192191906122a4565b9081150290604051600060405180830381858888f1935050505015801561194c573d6000803e3d6000fd5b5050611d18565b600460ff1660006001805461196891906121a1565b8154811061197957611978612209565b5b906000526020600020906002020160010160169054906101000a900460ff1660ff1603611d1757600060026004546003546002546119b791906121d5565b6119c191906121d5565b6119cb9190612315565b905060005b600a6000600180546119e291906121a1565b815260200190815260200160002080549050811015611c68576000600554836009600060018054611a1391906121a1565b81526020019081526020016000206000600a600060018054611a3591906121a1565b81526020019081526020016000208681548110611a5557611a54612209565b5b9060005260206000200160009054906101000a900473ffffffffffffffffffffffffffffffffffffffff1673ffffffffffffffffffffffffffffffffffffffff1673ffffffffffffffffffffffffffffffffffffffff16815260200190815260200160002060030154611ac891906122a4565b611ad29190612315565b90506009600060018054611ae691906121a1565b81526020019081526020016000206000600a600060018054611b0891906121a1565b81526020019081526020016000208481548110611b2857611b27612209565b5b9060005260206000200160009054906101000a900473ffffffffffffffffffffffffffffffffffffffff1673ffffffffffffffffffffffffffffffffffffffff1673ffffffffffffffffffffffffffffffffffffffff1681526020019081526020016000206003015481611b9c91906121d5565b9050600a600060018054611bb091906121a1565b81526020019081526020016000208281548110611bd057611bcf612209565b5b9060005260206000200160009054906101000a900473ffffffffffffffffffffffffffffffffffffffff1673ffffffffffffffffffffffffffffffffffffffff166108fc670de0b6b3a764000083611c2891906122a4565b9081150290604051600060405180830381858888f19350505050158015611c53573d6000803e3d6000fd5b50508080611c6090612159565b9150506119d0565b50600060018054611c7991906121a1565b81548110611c8a57611c89612209565b5b906000526020600020906002020160010160009054906101000a900473ffffffffffffffffffffffffffffffffffffffff1673ffffffffffffffffffffffffffffffffffffffff166108fc670de0b6b3a764000083611ce991906122a4565b9081150290604051600060405180830381858888f19350505050158015611d14573d6000803e3d6000fd5b50505b5b5b5b60006006819055506000600860146101000a81548160ff0219169083151502179055506000600281905550600060038190555060006004819055506000600581905550565b600080fd5b6000819050919050565b611d7781611d64565b8114611d8257600080fd5b50565b600081359050611d9481611d6e565b92915050565b60008060408385031215611db157611db0611d5f565b5b6000611dbf85828601611d85565b9250506020611dd085828601611d85565b9150509250929050565b600073ffffffffffffffffffffffffffffffffffffffff82169050919050565b6000611e0582611dda565b9050919050565b611e1581611dfa565b82525050565b6000602082019050611e306000830184611e0c565b92915050565b611e3f81611dfa565b8114611e4a57600080fd5b50565b600081359050611e5c81611e36565b92915050565b60008060408385031215611e7957611e78611d5f565b5b6000611e8785828601611e4d565b9250506020611e9885828601611e4d565b9150509250929050565b611eab81611d64565b82525050565b6000602082019050611ec66000830184611ea2565b92915050565b600060208284031215611ee257611ee1611d5f565b5b6000611ef084828501611d85565b91505092915050565b600060ff82169050919050565b611f0f81611ef9565b82525050565b600060a082019050611f2a6000830188611e0c565b611f376020830187611e0c565b611f446040830186611f06565b611f516060830185611f06565b611f5e6080830184611f06565b9695505050505050565b60008060408385031215611f7f57611f7e611d5f565b5b6000611f8d85828601611d85565b9250506020611f9e85828601611e4d565b9150509250929050565b6000608082019050611fbd6000830187611ea2565b611fca6020830186611ea2565b611fd76040830185611ea2565b611fe46060830184611ea2565b95945050505050565b6000806000806080858703121561200757612006611d5f565b5b600061201587828801611d85565b945050602061202687828801611d85565b935050604061203787828801611d85565b925050606061204887828801611d85565b91505092959194509250565b61205d81611ef9565b811461206857600080fd5b50565b60008135905061207a81612054565b92915050565b60006020828403121561209657612095611d5f565b5b60006120a48482850161206b565b91505092915050565b600082825260208201905092915050565b7f4576656e742066756c6c00000000000000000000000000000000000000000000600082015250565b60006120f4600a836120ad565b91506120ff826120be565b602082019050919050565b60006020820190508181036000830152612123816120e7565b9050919050565b7f4e487b7100000000000000000000000000000000000000000000000000000000600052601160045260246000fd5b600061216482611d64565b91507fffffffffffffffffffffffffffffffffffffffffffffffffffffffffffffffff82036121965761219561212a565b5b600182019050919050565b60006121ac82611d64565b91506121b783611d64565b92508282039050818111156121cf576121ce61212a565b5b92915050565b60006121e082611d64565b91506121eb83611d64565b92508282019050808211156122035761220261212a565b5b92915050565b7f4e487b7100000000000000000000000000000000000000000000000000000000600052603260045260246000fd5b7f596f7520646f6e742068617665207065726d697373696f6e0000000000000000600082015250565b600061226e6018836120ad565b915061227982612238565b602082019050919050565b6000602082019050818103600083015261229d81612261565b9050919050565b60006122af82611d64565b91506122ba83611d64565b92508282026122c881611d64565b915082820484148315176122df576122de61212a565b5b5092915050565b7f4e487b7100000000000000000000000000000000000000000000000000000000600052601260045260246000fd5b600061232082611d64565b915061232b83611d64565b92508261233b5761233a6122e6565b5b82820490509291505056fea2646970667358221220b4c7911855b618a8388d5a1d6a33f4e7c6d09f7018f68d857aa01bf9dcfa1d6464736f6c63430008120033",
  "linkReferences": {},
  "deployedLinkReferences": {}
}