{"contracts/TopG.sol":{"TopG":{"abi":[{"inputs":[{"internalType":"uint256","name":"o1","type":"uint256"},{"internalType":"uint256","name":"o2","type":"uint256"},{"internalType":"uint256","name":"o3","type":"uint256"},{"internalType":"uint256","name":"o4","type":"uint256"}],"name":"bet","outputs":[],"stateMutability":"payable","type":"function"},{"inputs":[{"internalType":"address","name":"p1","type":"address"},{"internalType":"address","name":"p2","type":"address"}],"name":"create_match","outputs":[],"stateMutability":"nonpayable","type":"function"},{"inputs":[],"name":"current_match_id","outputs":[{"internalType":"uint256","name":"","type":"uint256"}],"stateMutability":"view","type":"function"},{"inputs":[],"name":"distribute","outputs":[],"stateMutability":"payable","type":"function"},{"inputs":[{"internalType":"uint256","name":"","type":"uint256"},{"internalType":"address","name":"","type":"address"}],"name":"match_to_stakers","outputs":[{"internalType":"uint256","name":"option1","type":"uint256"},{"internalType":"uint256","name":"option2","type":"uint256"},{"internalType":"uint256","name":"option3","type":"uint256"},{"internalType":"uint256","name":"option4","type":"uint256"}],"stateMutability":"view","type":"function"},{"inputs":[{"internalType":"uint256","name":"","type":"uint256"},{"internalType":"uint256","name":"","type":"uint256"}],"name":"match_to_stakers_list","outputs":[{"internalType":"address","name":"","type":"address"}],"stateMutability":"view","type":"function"},{"inputs":[{"internalType":"uint256","name":"","type":"uint256"}],"name":"matches","outputs":[{"internalType":"address","name":"p1","type":"address"},{"internalType":"address","name":"p2","type":"address"},{"internalType":"uint8","name":"choice1","type":"uint8"},{"internalType":"uint8","name":"choice2","type":"uint8"},{"internalType":"uint8","name":"outcome","type":"uint8"}],"stateMutability":"view","type":"function"},{"inputs":[],"name":"player1","outputs":[{"internalType":"address","name":"","type":"address"}],"stateMutability":"view","type":"function"},{"inputs":[],"name":"player2","outputs":[{"internalType":"address","name":"","type":"address"}],"stateMutability":"view","type":"function"},{"inputs":[],"name":"register","outputs":[],"stateMutability":"payable","type":"function"},{"inputs":[],"name":"result","outputs":[],"stateMutability":"nonpayable","type":"function"},{"inputs":[{"internalType":"uint8","name":"choice_1","type":"uint8"}],"name":"update_choice1","outputs":[],"stateMutability":"nonpayable","type":"function"},{"inputs":[{"internalType":"uint8","name":"choice_2","type":"uint8"}],"name":"update_choice2","outputs":[],"stateMutability":"nonpayable","type":"function"}],"evm":{"bytecode":{"linkReferences":{},"object":"60806040526000600155600060025560006003556000600455600060055560006006556000600860146101000a81548160ff02191690831515021790555034801561004957600080fd5b50612431806100596000396000f3fe6080604052600436106100c25760003560e01c8063567bb0b61161007f57806365372147116100595780636537214714610253578063b02cfb4c1461026a578063d30895e414610293578063e4fc6b6d146102be576100c2565b8063567bb0b6146101e357806359a5f12d146101ff5780636410faa01461022a576100c2565b806308454e71146100c75780631aa3a0081461010457806326cf1a321461010e5780632d23d0ed146101375780634768d4ef146101625780634830214e146101a3575b600080fd5b3480156100d357600080fd5b506100ee60048036038101906100e99190611de3565b6102c8565b6040516100fb9190611e64565b60405180910390f35b61010c610316565b005b34801561011a57600080fd5b5061013560048036038101906101309190611eab565b6104c4565b005b34801561014357600080fd5b5061014c61065d565b6040516101599190611efa565b60405180910390f35b34801561016e57600080fd5b5061018960048036038101906101849190611f15565b610663565b60405161019a959493929190611f5e565b60405180910390f35b3480156101af57600080fd5b506101ca60048036038101906101c59190611fb1565b610710565b6040516101da9493929190611ff1565b60405180910390f35b6101fd60048036038101906101f89190612036565b61074d565b005b34801561020b57600080fd5b506102146108e1565b6040516102219190611e64565b60405180910390f35b34801561023657600080fd5b50610251600480360381019061024c91906120c9565b610907565b005b34801561025f57600080fd5b50610268610a15565b005b34801561027657600080fd5b50610291600480360381019061028c91906120c9565b610d04565b005b34801561029f57600080fd5b506102a8610e12565b6040516102b59190611e64565b60405180910390f35b6102c6610e38565b005b600a60205281600052604060002081815481106102e457600080fd5b906000526020600020016000915091509054906101000a900473ffffffffffffffffffffffffffffffffffffffff1681565b60026006541061035b576040517f08c379a000000000000000000000000000000000000000000000000000000000815260040161035290612153565b60405180910390fd5b66b1a2bc2ec5000034146103a4576040517f08c379a000000000000000000000000000000000000000000000000000000000815260040161039b906121bf565b60405180910390fd5b6000600654036103f45733600760006101000a81548173ffffffffffffffffffffffffffffffffffffffff021916908373ffffffffffffffffffffffffffffffffffffffff160217905550610436565b33600860006101000a81548173ffffffffffffffffffffffffffffffffffffffff021916908373ffffffffffffffffffffffffffffffffffffffff1602179055505b600660008154809291906104499061220e565b91905055506002600654036104c2576001600860146101000a81548160ff0219169083151502179055506104c1600760009054906101000a900473ffffffffffffffffffffffffffffffffffffffff16600860009054906101000a900473ffffffffffffffffffffffffffffffffffffffff166104c4565b5b565b600160008154809291906104d79061220e565b919050555060006040518060a001604052808473ffffffffffffffffffffffffffffffffffffffff1681526020018373ffffffffffffffffffffffffffffffffffffffff168152602001600060ff168152602001600060ff168152602001600060ff16815250908060018154018082558091505060019003906000526020600020906002020160009091909190915060008201518160000160006101000a81548173ffffffffffffffffffffffffffffffffffffffff021916908373ffffffffffffffffffffffffffffffffffffffff16021790555060208201518160010160006101000a81548173ffffffffffffffffffffffffffffffffffffffff021916908373ffffffffffffffffffffffffffffffffffffffff16021790555060408201518160010160146101000a81548160ff021916908360ff16021790555060608201518160010160156101000a81548160ff021916908360ff16021790555060808201518160010160166101000a81548160ff021916908360ff16021790555050505050565b60015481565b6000818154811061067357600080fd5b90600052602060002090600202016000915090508060000160009054906101000a900473ffffffffffffffffffffffffffffffffffffffff16908060010160009054906101000a900473ffffffffffffffffffffffffffffffffffffffff16908060010160149054906101000a900460ff16908060010160159054906101000a900460ff16908060010160169054906101000a900460ff16905085565b6009602052816000526040600020602052806000526040600020600091509150508060000154908060010154908060020154908060030154905084565b600a60006001805461075f9190612256565b8152602001908152602001600020339080600181540180825580915050600190039060005260206000200160009091909190916101000a81548173ffffffffffffffffffffffffffffffffffffffff021916908373ffffffffffffffffffffffffffffffffffffffff16021790555060405180608001604052808581526020018481526020018381526020018281525060096000600180546108019190612256565b815260200190815260200160002060003373ffffffffffffffffffffffffffffffffffffffff1673ffffffffffffffffffffffffffffffffffffffff168152602001908152602001600020600082015181600001556020820151816001015560408201518160020155606082015181600301559050508360026000828254610889919061228a565b9250508190555082600360008282546108a2919061228a565b9250508190555081600460008282546108bb919061228a565b9250508190555080600560008282546108d4919061228a565b9250508190555050505050565b600860009054906101000a900473ffffffffffffffffffffffffffffffffffffffff1681565b6000600180546109179190612256565b81548110610928576109276122be565b5b906000526020600020906002020160000160009054906101000a900473ffffffffffffffffffffffffffffffffffffffff1673ffffffffffffffffffffffffffffffffffffffff163373ffffffffffffffffffffffffffffffffffffffff16146109c7576040517f08c379a00000000000000000000000000000000000000000000000000000000081526004016109be90612339565b60405180910390fd5b806000600180546109d89190612256565b815481106109e9576109e86122be565b5b906000526020600020906002020160010160146101000a81548160ff021916908360ff16021790555050565b6000600160ff16600060018054610a2c9190612256565b81548110610a3d57610a3c6122be565b5b906000526020600020906002020160010160149054906101000a900460ff1660ff16148015610ab15750600160ff16600060018054610a7c9190612256565b81548110610a8d57610a8c6122be565b5b906000526020600020906002020160010160159054906101000a900460ff1660ff16145b15610abf5760019050610cb6565b600260ff16600060018054610ad49190612256565b81548110610ae557610ae46122be565b5b906000526020600020906002020160010160149054906101000a900460ff1660ff16148015610b595750600260ff16600060018054610b249190612256565b81548110610b3557610b346122be565b5b906000526020600020906002020160010160159054906101000a900460ff1660ff16145b15610b675760029050610cb5565b600160ff16600060018054610b7c9190612256565b81548110610b8d57610b8c6122be565b5b906000526020600020906002020160010160149054906101000a900460ff1660ff16148015610c015750600260ff16600060018054610bcc9190612256565b81548110610bdd57610bdc6122be565b5b906000526020600020906002020160010160159054906101000a900460ff1660ff16145b15610c0f5760039050610cb4565b600260ff16600060018054610c249190612256565b81548110610c3557610c346122be565b5b906000526020600020906002020160010160149054906101000a900460ff1660ff16148015610ca95750600160ff16600060018054610c749190612256565b81548110610c8557610c846122be565b5b906000526020600020906002020160010160159054906101000a900460ff1660ff16145b15610cb357600490505b5b5b5b80600060018054610cc79190612256565b81548110610cd857610cd76122be565b5b906000526020600020906002020160010160166101000a81548160ff021916908360ff16021790555050565b600060018054610d149190612256565b81548110610d2557610d246122be565b5b906000526020600020906002020160010160009054906101000a900473ffffffffffffffffffffffffffffffffffffffff1673ffffffffffffffffffffffffffffffffffffffff163373ffffffffffffffffffffffffffffffffffffffff1614610dc4576040517f08c379a0000000000000000000000000000000000000000000000000000000008152600401610dbb90612339565b60405180910390fd5b80600060018054610dd59190612256565b81548110610de657610de56122be565b5b906000526020600020906002020160010160156101000a81548160ff021916908360ff16021790555050565b600760009054906101000a900473ffffffffffffffffffffffffffffffffffffffff1681565b600160ff16600060018054610e4d9190612256565b81548110610e5e57610e5d6122be565b5b906000526020600020906002020160010160169054906101000a900460ff1660ff1603611148576000600554600454600354610e9a919061228a565b610ea4919061228a565b905060005b600a600060018054610ebb9190612256565b815260200190815260200160002080549050811015611141576000600254836009600060018054610eec9190612256565b81526020019081526020016000206000600a600060018054610f0e9190612256565b81526020019081526020016000208681548110610f2e57610f2d6122be565b5b9060005260206000200160009054906101000a900473ffffffffffffffffffffffffffffffffffffffff1673ffffffffffffffffffffffffffffffffffffffff1673ffffffffffffffffffffffffffffffffffffffff16815260200190815260200160002060000154610fa19190612359565b610fab91906123ca565b90506009600060018054610fbf9190612256565b81526020019081526020016000206000600a600060018054610fe19190612256565b81526020019081526020016000208481548110611001576110006122be565b5b9060005260206000200160009054906101000a900473ffffffffffffffffffffffffffffffffffffffff1673ffffffffffffffffffffffffffffffffffffffff1673ffffffffffffffffffffffffffffffffffffffff1681526020019081526020016000206000015481611075919061228a565b9050600a6000600180546110899190612256565b815260200190815260200160002082815481106110a9576110a86122be565b5b9060005260206000200160009054906101000a900473ffffffffffffffffffffffffffffffffffffffff1673ffffffffffffffffffffffffffffffffffffffff166108fc670de0b6b3a7640000836111019190612359565b9081150290604051600060405180830381858888f1935050505015801561112c573d6000803e3d6000fd5b505080806111399061220e565b915050610ea9565b5050611d63565b600260ff1660006001805461115d9190612256565b8154811061116e5761116d6122be565b5b906000526020600020906002020160010160169054906101000a900460ff1660ff16036115d457600060026005546004546002546111ac919061228a565b6111b6919061228a565b6111c091906123ca565b905060005b600a6000600180546111d79190612256565b81526020019081526020016000208054905081101561145d5760006003548360096000600180546112089190612256565b81526020019081526020016000206000600a60006001805461122a9190612256565b8152602001908152602001600020868154811061124a576112496122be565b5b9060005260206000200160009054906101000a900473ffffffffffffffffffffffffffffffffffffffff1673ffffffffffffffffffffffffffffffffffffffff1673ffffffffffffffffffffffffffffffffffffffff168152602001908152602001600020600101546112bd9190612359565b6112c791906123ca565b905060096000600180546112db9190612256565b81526020019081526020016000206000600a6000600180546112fd9190612256565b8152602001908152602001600020848154811061131d5761131c6122be565b5b9060005260206000200160009054906101000a900473ffffffffffffffffffffffffffffffffffffffff1673ffffffffffffffffffffffffffffffffffffffff1673ffffffffffffffffffffffffffffffffffffffff1681526020019081526020016000206001015481611391919061228a565b9050600a6000600180546113a59190612256565b815260200190815260200160002082815481106113c5576113c46122be565b5b9060005260206000200160009054906101000a900473ffffffffffffffffffffffffffffffffffffffff1673ffffffffffffffffffffffffffffffffffffffff166108fc670de0b6b3a76400008361141d9190612359565b9081150290604051600060405180830381858888f19350505050158015611448573d6000803e3d6000fd5b505080806114559061220e565b9150506111c5565b5060006001805461146e9190612256565b8154811061147f5761147e6122be565b5b906000526020600020906002020160000160009054906101000a900473ffffffffffffffffffffffffffffffffffffffff1673ffffffffffffffffffffffffffffffffffffffff166108fc6002670de0b6b3a7640000846114e09190612359565b6114ea91906123ca565b9081150290604051600060405180830381858888f19350505050158015611515573d6000803e3d6000fd5b506000600180546115269190612256565b81548110611537576115366122be565b5b906000526020600020906002020160010160009054906101000a900473ffffffffffffffffffffffffffffffffffffffff1673ffffffffffffffffffffffffffffffffffffffff166108fc6002670de0b6b3a7640000846115989190612359565b6115a291906123ca565b9081150290604051600060405180830381858888f193505050501580156115cd573d6000803e3d6000fd5b5050611d62565b600360ff166000600180546115e99190612256565b815481106115fa576115f96122be565b5b906000526020600020906002020160010160169054906101000a900460ff1660ff160361199c5760006002600554600354600254611638919061228a565b611642919061228a565b61164c91906123ca565b905060005b600a6000600180546116639190612256565b8152602001908152602001600020805490508110156118e95760006004548360096000600180546116949190612256565b81526020019081526020016000206000600a6000600180546116b69190612256565b815260200190815260200160002086815481106116d6576116d56122be565b5b9060005260206000200160009054906101000a900473ffffffffffffffffffffffffffffffffffffffff1673ffffffffffffffffffffffffffffffffffffffff1673ffffffffffffffffffffffffffffffffffffffff168152602001908152602001600020600201546117499190612359565b61175391906123ca565b905060096000600180546117679190612256565b81526020019081526020016000206000600a6000600180546117899190612256565b815260200190815260200160002084815481106117a9576117a86122be565b5b9060005260206000200160009054906101000a900473ffffffffffffffffffffffffffffffffffffffff1673ffffffffffffffffffffffffffffffffffffffff1673ffffffffffffffffffffffffffffffffffffffff168152602001908152602001600020600201548161181d919061228a565b9050600a6000600180546118319190612256565b81526020019081526020016000208281548110611851576118506122be565b5b9060005260206000200160009054906101000a900473ffffffffffffffffffffffffffffffffffffffff1673ffffffffffffffffffffffffffffffffffffffff166108fc670de0b6b3a7640000836118a99190612359565b9081150290604051600060405180830381858888f193505050501580156118d4573d6000803e3d6000fd5b505080806118e19061220e565b915050611651565b506000600180546118fa9190612256565b8154811061190b5761190a6122be565b5b906000526020600020906002020160000160009054906101000a900473ffffffffffffffffffffffffffffffffffffffff1673ffffffffffffffffffffffffffffffffffffffff166108fc670de0b6b3a76400008361196a9190612359565b9081150290604051600060405180830381858888f19350505050158015611995573d6000803e3d6000fd5b5050611d61565b600460ff166000600180546119b19190612256565b815481106119c2576119c16122be565b5b906000526020600020906002020160010160169054906101000a900460ff1660ff1603611d605760006002600454600354600254611a00919061228a565b611a0a919061228a565b611a1491906123ca565b905060005b600a600060018054611a2b9190612256565b815260200190815260200160002080549050811015611cb1576000600554836009600060018054611a5c9190612256565b81526020019081526020016000206000600a600060018054611a7e9190612256565b81526020019081526020016000208681548110611a9e57611a9d6122be565b5b9060005260206000200160009054906101000a900473ffffffffffffffffffffffffffffffffffffffff1673ffffffffffffffffffffffffffffffffffffffff1673ffffffffffffffffffffffffffffffffffffffff16815260200190815260200160002060030154611b119190612359565b611b1b91906123ca565b90506009600060018054611b2f9190612256565b81526020019081526020016000206000600a600060018054611b519190612256565b81526020019081526020016000208481548110611b7157611b706122be565b5b9060005260206000200160009054906101000a900473ffffffffffffffffffffffffffffffffffffffff1673ffffffffffffffffffffffffffffffffffffffff1673ffffffffffffffffffffffffffffffffffffffff1681526020019081526020016000206003015481611be5919061228a565b9050600a600060018054611bf99190612256565b81526020019081526020016000208281548110611c1957611c186122be565b5b9060005260206000200160009054906101000a900473ffffffffffffffffffffffffffffffffffffffff1673ffffffffffffffffffffffffffffffffffffffff166108fc670de0b6b3a764000083611c719190612359565b9081150290604051600060405180830381858888f19350505050158015611c9c573d6000803e3d6000fd5b50508080611ca99061220e565b915050611a19565b50600060018054611cc29190612256565b81548110611cd357611cd26122be565b5b906000526020600020906002020160010160009054906101000a900473ffffffffffffffffffffffffffffffffffffffff1673ffffffffffffffffffffffffffffffffffffffff166108fc670de0b6b3a764000083611d329190612359565b9081150290604051600060405180830381858888f19350505050158015611d5d573d6000803e3d6000fd5b50505b5b5b5b60006006819055506000600860146101000a81548160ff0219169083151502179055506000600281905550600060038190555060006004819055506000600581905550565b600080fd5b6000819050919050565b611dc081611dad565b8114611dcb57600080fd5b50565b600081359050611ddd81611db7565b92915050565b60008060408385031215611dfa57611df9611da8565b5b6000611e0885828601611dce565b9250506020611e1985828601611dce565b9150509250929050565b600073ffffffffffffffffffffffffffffffffffffffff82169050919050565b6000611e4e82611e23565b9050919050565b611e5e81611e43565b82525050565b6000602082019050611e796000830184611e55565b92915050565b611e8881611e43565b8114611e9357600080fd5b50565b600081359050611ea581611e7f565b92915050565b60008060408385031215611ec257611ec1611da8565b5b6000611ed085828601611e96565b9250506020611ee185828601611e96565b9150509250929050565b611ef481611dad565b82525050565b6000602082019050611f0f6000830184611eeb565b92915050565b600060208284031215611f2b57611f2a611da8565b5b6000611f3984828501611dce565b91505092915050565b600060ff82169050919050565b611f5881611f42565b82525050565b600060a082019050611f736000830188611e55565b611f806020830187611e55565b611f8d6040830186611f4f565b611f9a6060830185611f4f565b611fa76080830184611f4f565b9695505050505050565b60008060408385031215611fc857611fc7611da8565b5b6000611fd685828601611dce565b9250506020611fe785828601611e96565b9150509250929050565b60006080820190506120066000830187611eeb565b6120136020830186611eeb565b6120206040830185611eeb565b61202d6060830184611eeb565b95945050505050565b600080600080608085870312156120505761204f611da8565b5b600061205e87828801611dce565b945050602061206f87828801611dce565b935050604061208087828801611dce565b925050606061209187828801611dce565b91505092959194509250565b6120a681611f42565b81146120b157600080fd5b50565b6000813590506120c38161209d565b92915050565b6000602082840312156120df576120de611da8565b5b60006120ed848285016120b4565b91505092915050565b600082825260208201905092915050565b7f4576656e742066756c6c00000000000000000000000000000000000000000000600082015250565b600061213d600a836120f6565b915061214882612107565b602082019050919050565b6000602082019050818103600083015261216c81612130565b9050919050565b7f4d6f7265207374616b6520726571756972656400000000000000000000000000600082015250565b60006121a96013836120f6565b91506121b482612173565b602082019050919050565b600060208201905081810360008301526121d88161219c565b9050919050565b7f4e487b7100000000000000000000000000000000000000000000000000000000600052601160045260246000fd5b600061221982611dad565b91507fffffffffffffffffffffffffffffffffffffffffffffffffffffffffffffffff820361224b5761224a6121df565b5b600182019050919050565b600061226182611dad565b915061226c83611dad565b9250828203905081811115612284576122836121df565b5b92915050565b600061229582611dad565b91506122a083611dad565b92508282019050808211156122b8576122b76121df565b5b92915050565b7f4e487b7100000000000000000000000000000000000000000000000000000000600052603260045260246000fd5b7f596f7520646f6e742068617665207065726d697373696f6e0000000000000000600082015250565b60006123236018836120f6565b915061232e826122ed565b602082019050919050565b6000602082019050818103600083015261235281612316565b9050919050565b600061236482611dad565b915061236f83611dad565b925082820261237d81611dad565b91508282048414831517612394576123936121df565b5b5092915050565b7f4e487b7100000000000000000000000000000000000000000000000000000000600052601260045260246000fd5b60006123d582611dad565b91506123e083611dad565b9250826123f0576123ef61239b565b5b82820490509291505056fea264697066735822122030657a9094000775218b514bfac12725f6f3277772da3ddfeded304ec1d123a564736f6c63430008120033","opcodes":"PUSH1 0x80 PUSH1 0x40 MSTORE PUSH1 0x0 PUSH1 0x1 SSTORE PUSH1 0x0 PUSH1 0x2 SSTORE PUSH1 0x0 PUSH1 0x3 SSTORE PUSH1 0x0 PUSH1 0x4 SSTORE PUSH1 0x0 PUSH1 0x5 SSTORE PUSH1 0x0 PUSH1 0x6 SSTORE PUSH1 0x0 PUSH1 0x8 PUSH1 0x14 PUSH2 0x100 EXP DUP2 SLOAD DUP2 PUSH1 0xFF MUL NOT AND SWAP1 DUP4 ISZERO ISZERO MUL OR SWAP1 SSTORE POP CALLVALUE DUP1 ISZERO PUSH2 0x49 JUMPI PUSH1 0x0 DUP1 REVERT JUMPDEST POP PUSH2 0x2431 DUP1 PUSH2 0x59 PUSH1 0x0 CODECOPY PUSH1 0x0 RETURN INVALID PUSH1 0x80 PUSH1 0x40 MSTORE PUSH1 0x4 CALLDATASIZE LT PUSH2 0xC2 JUMPI PUSH1 0x0 CALLDATALOAD PUSH1 0xE0 SHR DUP1 PUSH4 0x567BB0B6 GT PUSH2 0x7F JUMPI DUP1 PUSH4 0x65372147 GT PUSH2 0x59 JUMPI DUP1 PUSH4 0x65372147 EQ PUSH2 0x253 JUMPI DUP1 PUSH4 0xB02CFB4C EQ PUSH2 0x26A JUMPI DUP1 PUSH4 0xD30895E4 EQ PUSH2 0x293 JUMPI DUP1 PUSH4 0xE4FC6B6D EQ PUSH2 0x2BE JUMPI PUSH2 0xC2 JUMP JUMPDEST DUP1 PUSH4 0x567BB0B6 EQ PUSH2 0x1E3 JUMPI DUP1 PUSH4 0x59A5F12D EQ PUSH2 0x1FF JUMPI DUP1 PUSH4 0x6410FAA0 EQ PUSH2 0x22A JUMPI PUSH2 0xC2 JUMP JUMPDEST DUP1 PUSH4 0x8454E71 EQ PUSH2 0xC7 JUMPI DUP1 PUSH4 0x1AA3A008 EQ PUSH2 0x104 JUMPI DUP1 PUSH4 0x26CF1A32 EQ PUSH2 0x10E JUMPI DUP1 PUSH4 0x2D23D0ED EQ PUSH2 0x137 JUMPI DUP1 PUSH4 0x4768D4EF EQ PUSH2 0x162 JUMPI DUP1 PUSH4 0x4830214E EQ PUSH2 0x1A3 JUMPI JUMPDEST PUSH1 0x0 DUP1 REVERT JUMPDEST CALLVALUE DUP1 ISZERO PUSH2 0xD3 JUMPI PUSH1 0x0 DUP1 REVERT JUMPDEST POP PUSH2 0xEE PUSH1 0x4 DUP1 CALLDATASIZE SUB DUP2 ADD SWAP1 PUSH2 0xE9 SWAP2 SWAP1 PUSH2 0x1DE3 JUMP JUMPDEST PUSH2 0x2C8 JUMP JUMPDEST PUSH1 0x40 MLOAD PUSH2 0xFB SWAP2 SWAP1 PUSH2 0x1E64 JUMP JUMPDEST PUSH1 0x40 MLOAD DUP1 SWAP2 SUB SWAP1 RETURN JUMPDEST PUSH2 0x10C PUSH2 0x316 JUMP JUMPDEST STOP JUMPDEST CALLVALUE DUP1 ISZERO PUSH2 0x11A JUMPI PUSH1 0x0 DUP1 REVERT JUMPDEST POP PUSH2 0x135 PUSH1 0x4 DUP1 CALLDATASIZE SUB DUP2 ADD SWAP1 PUSH2 0x130 SWAP2 SWAP1 PUSH2 0x1EAB JUMP JUMPDEST PUSH2 0x4C4 JUMP JUMPDEST STOP JUMPDEST CALLVALUE DUP1 ISZERO PUSH2 0x143 JUMPI PUSH1 0x0 DUP1 REVERT JUMPDEST POP PUSH2 0x14C PUSH2 0x65D JUMP JUMPDEST PUSH1 0x40 MLOAD PUSH2 0x159 SWAP2 SWAP1 PUSH2 0x1EFA JUMP JUMPDEST PUSH1 0x40 MLOAD DUP1 SWAP2 SUB SWAP1 RETURN JUMPDEST CALLVALUE DUP1 ISZERO PUSH2 0x16E JUMPI PUSH1 0x0 DUP1 REVERT JUMPDEST POP PUSH2 0x189 PUSH1 0x4 DUP1 CALLDATASIZE SUB DUP2 ADD SWAP1 PUSH2 0x184 SWAP2 SWAP1 PUSH2 0x1F15 JUMP JUMPDEST PUSH2 0x663 JUMP JUMPDEST PUSH1 0x40 MLOAD PUSH2 0x19A SWAP6 SWAP5 SWAP4 SWAP3 SWAP2 SWAP1 PUSH2 0x1F5E JUMP JUMPDEST PUSH1 0x40 MLOAD DUP1 SWAP2 SUB SWAP1 RETURN JUMPDEST CALLVALUE DUP1 ISZERO PUSH2 0x1AF JUMPI PUSH1 0x0 DUP1 REVERT JUMPDEST POP PUSH2 0x1CA PUSH1 0x4 DUP1 CALLDATASIZE SUB DUP2 ADD SWAP1 PUSH2 0x1C5 SWAP2 SWAP1 PUSH2 0x1FB1 JUMP JUMPDEST PUSH2 0x710 JUMP JUMPDEST PUSH1 0x40 MLOAD PUSH2 0x1DA SWAP5 SWAP4 SWAP3 SWAP2 SWAP1 PUSH2 0x1FF1 JUMP JUMPDEST PUSH1 0x40 MLOAD DUP1 SWAP2 SUB SWAP1 RETURN JUMPDEST PUSH2 0x1FD PUSH1 0x4 DUP1 CALLDATASIZE SUB DUP2 ADD SWAP1 PUSH2 0x1F8 SWAP2 SWAP1 PUSH2 0x2036 JUMP JUMPDEST PUSH2 0x74D JUMP JUMPDEST STOP JUMPDEST CALLVALUE DUP1 ISZERO PUSH2 0x20B JUMPI PUSH1 0x0 DUP1 REVERT JUMPDEST POP PUSH2 0x214 PUSH2 0x8E1 JUMP JUMPDEST PUSH1 0x40 MLOAD PUSH2 0x221 SWAP2 SWAP1 PUSH2 0x1E64 JUMP JUMPDEST PUSH1 0x40 MLOAD DUP1 SWAP2 SUB SWAP1 RETURN JUMPDEST CALLVALUE DUP1 ISZERO PUSH2 0x236 JUMPI PUSH1 0x0 DUP1 REVERT JUMPDEST POP PUSH2 0x251 PUSH1 0x4 DUP1 CALLDATASIZE SUB DUP2 ADD SWAP1 PUSH2 0x24C SWAP2 SWAP1 PUSH2 0x20C9 JUMP JUMPDEST PUSH2 0x907 JUMP JUMPDEST STOP JUMPDEST CALLVALUE DUP1 ISZERO PUSH2 0x25F JUMPI PUSH1 0x0 DUP1 REVERT JUMPDEST POP PUSH2 0x268 PUSH2 0xA15 JUMP JUMPDEST STOP JUMPDEST CALLVALUE DUP1 ISZERO PUSH2 0x276 JUMPI PUSH1 0x0 DUP1 REVERT JUMPDEST POP PUSH2 0x291 PUSH1 0x4 DUP1 CALLDATASIZE SUB DUP2 ADD SWAP1 PUSH2 0x28C SWAP2 SWAP1 PUSH2 0x20C9 JUMP JUMPDEST PUSH2 0xD04 JUMP JUMPDEST STOP JUMPDEST CALLVALUE DUP1 ISZERO PUSH2 0x29F JUMPI PUSH1 0x0 DUP1 REVERT JUMPDEST POP PUSH2 0x2A8 PUSH2 0xE12 JUMP JUMPDEST PUSH1 0x40 MLOAD PUSH2 0x2B5 SWAP2 SWAP1 PUSH2 0x1E64 JUMP JUMPDEST PUSH1 0x40 MLOAD DUP1 SWAP2 SUB SWAP1 RETURN JUMPDEST PUSH2 0x2C6 PUSH2 0xE38 JUMP JUMPDEST STOP JUMPDEST PUSH1 0xA PUSH1 0x20 MSTORE DUP2 PUSH1 0x0 MSTORE PUSH1 0x40 PUSH1 0x0 KECCAK256 DUP2 DUP2 SLOAD DUP2 LT PUSH2 0x2E4 JUMPI PUSH1 0x0 DUP1 REVERT JUMPDEST SWAP1 PUSH1 0x0 MSTORE PUSH1 0x20 PUSH1 0x0 KECCAK256 ADD PUSH1 0x0 SWAP2 POP SWAP2 POP SWAP1 SLOAD SWAP1 PUSH2 0x100 EXP SWAP1 DIV PUSH20 0xFFFFFFFFFFFFFFFFFFFFFFFFFFFFFFFFFFFFFFFF AND DUP2 JUMP JUMPDEST PUSH1 0x2 PUSH1 0x6 SLOAD LT PUSH2 0x35B JUMPI PUSH1 0x40 MLOAD PUSH32 0x8C379A000000000000000000000000000000000000000000000000000000000 DUP2 MSTORE PUSH1 0x4 ADD PUSH2 0x352 SWAP1 PUSH2 0x2153 JUMP JUMPDEST PUSH1 0x40 MLOAD DUP1 SWAP2 SUB SWAP1 REVERT JUMPDEST PUSH7 0xB1A2BC2EC50000 CALLVALUE EQ PUSH2 0x3A4 JUMPI PUSH1 0x40 MLOAD PUSH32 0x8C379A000000000000000000000000000000000000000000000000000000000 DUP2 MSTORE PUSH1 0x4 ADD PUSH2 0x39B SWAP1 PUSH2 0x21BF JUMP JUMPDEST PUSH1 0x40 MLOAD DUP1 SWAP2 SUB SWAP1 REVERT JUMPDEST PUSH1 0x0 PUSH1 0x6 SLOAD SUB PUSH2 0x3F4 JUMPI CALLER PUSH1 0x7 PUSH1 0x0 PUSH2 0x100 EXP DUP2 SLOAD DUP2 PUSH20 0xFFFFFFFFFFFFFFFFFFFFFFFFFFFFFFFFFFFFFFFF MUL NOT AND SWAP1 DUP4 PUSH20 0xFFFFFFFFFFFFFFFFFFFFFFFFFFFFFFFFFFFFFFFF AND MUL OR SWAP1 SSTORE POP PUSH2 0x436 JUMP JUMPDEST CALLER PUSH1 0x8 PUSH1 0x0 PUSH2 0x100 EXP DUP2 SLOAD DUP2 PUSH20 0xFFFFFFFFFFFFFFFFFFFFFFFFFFFFFFFFFFFFFFFF MUL NOT AND SWAP1 DUP4 PUSH20 0xFFFFFFFFFFFFFFFFFFFFFFFFFFFFFFFFFFFFFFFF AND MUL OR SWAP1 SSTORE POP JUMPDEST PUSH1 0x6 PUSH1 0x0 DUP2 SLOAD DUP1 SWAP3 SWAP2 SWAP1 PUSH2 0x449 SWAP1 PUSH2 0x220E JUMP JUMPDEST SWAP2 SWAP1 POP SSTORE POP PUSH1 0x2 PUSH1 0x6 SLOAD SUB PUSH2 0x4C2 JUMPI PUSH1 0x1 PUSH1 0x8 PUSH1 0x14 PUSH2 0x100 EXP DUP2 SLOAD DUP2 PUSH1 0xFF MUL NOT AND SWAP1 DUP4 ISZERO ISZERO MUL OR SWAP1 SSTORE POP PUSH2 0x4C1 PUSH1 0x7 PUSH1 0x0 SWAP1 SLOAD SWAP1 PUSH2 0x100 EXP SWAP1 DIV PUSH20 0xFFFFFFFFFFFFFFFFFFFFFFFFFFFFFFFFFFFFFFFF AND PUSH1 0x8 PUSH1 0x0 SWAP1 SLOAD SWAP1 PUSH2 0x100 EXP SWAP1 DIV PUSH20 0xFFFFFFFFFFFFFFFFFFFFFFFFFFFFFFFFFFFFFFFF AND PUSH2 0x4C4 JUMP JUMPDEST JUMPDEST JUMP JUMPDEST PUSH1 0x1 PUSH1 0x0 DUP2 SLOAD DUP1 SWAP3 SWAP2 SWAP1 PUSH2 0x4D7 SWAP1 PUSH2 0x220E JUMP JUMPDEST SWAP2 SWAP1 POP SSTORE POP PUSH1 0x0 PUSH1 0x40 MLOAD DUP1 PUSH1 0xA0 ADD PUSH1 0x40 MSTORE DUP1 DUP5 PUSH20 0xFFFFFFFFFFFFFFFFFFFFFFFFFFFFFFFFFFFFFFFF AND DUP2 MSTORE PUSH1 0x20 ADD DUP4 PUSH20 0xFFFFFFFFFFFFFFFFFFFFFFFFFFFFFFFFFFFFFFFF AND DUP2 MSTORE PUSH1 0x20 ADD PUSH1 0x0 PUSH1 0xFF AND DUP2 MSTORE PUSH1 0x20 ADD PUSH1 0x0 PUSH1 0xFF AND DUP2 MSTORE PUSH1 0x20 ADD PUSH1 0x0 PUSH1 0xFF AND DUP2 MSTORE POP SWAP1 DUP1 PUSH1 0x1 DUP2 SLOAD ADD DUP1 DUP3 SSTORE DUP1 SWAP2 POP POP PUSH1 0x1 SWAP1 SUB SWAP1 PUSH1 0x0 MSTORE PUSH1 0x20 PUSH1 0x0 KECCAK256 SWAP1 PUSH1 0x2 MUL ADD PUSH1 0x0 SWAP1 SWAP2 SWAP1 SWAP2 SWAP1 SWAP2 POP PUSH1 0x0 DUP3 ADD MLOAD DUP2 PUSH1 0x0 ADD PUSH1 0x0 PUSH2 0x100 EXP DUP2 SLOAD DUP2 PUSH20 0xFFFFFFFFFFFFFFFFFFFFFFFFFFFFFFFFFFFFFFFF MUL NOT AND SWAP1 DUP4 PUSH20 0xFFFFFFFFFFFFFFFFFFFFFFFFFFFFFFFFFFFFFFFF AND MUL OR SWAP1 SSTORE POP PUSH1 0x20 DUP3 ADD MLOAD DUP2 PUSH1 0x1 ADD PUSH1 0x0 PUSH2 0x100 EXP DUP2 SLOAD DUP2 PUSH20 0xFFFFFFFFFFFFFFFFFFFFFFFFFFFFFFFFFFFFFFFF MUL NOT AND SWAP1 DUP4 PUSH20 0xFFFFFFFFFFFFFFFFFFFFFFFFFFFFFFFFFFFFFFFF AND MUL OR SWAP1 SSTORE POP PUSH1 0x40 DUP3 ADD MLOAD DUP2 PUSH1 0x1 ADD PUSH1 0x14 PUSH2 0x100 EXP DUP2 SLOAD DUP2 PUSH1 0xFF MUL NOT AND SWAP1 DUP4 PUSH1 0xFF AND MUL OR SWAP1 SSTORE POP PUSH1 0x60 DUP3 ADD MLOAD DUP2 PUSH1 0x1 ADD PUSH1 0x15 PUSH2 0x100 EXP DUP2 SLOAD DUP2 PUSH1 0xFF MUL NOT AND SWAP1 DUP4 PUSH1 0xFF AND MUL OR SWAP1 SSTORE POP PUSH1 0x80 DUP3 ADD MLOAD DUP2 PUSH1 0x1 ADD PUSH1 0x16 PUSH2 0x100 EXP DUP2 SLOAD DUP2 PUSH1 0xFF MUL NOT AND SWAP1 DUP4 PUSH1 0xFF AND MUL OR SWAP1 SSTORE POP POP POP POP POP JUMP JUMPDEST PUSH1 0x1 SLOAD DUP2 JUMP JUMPDEST PUSH1 0x0 DUP2 DUP2 SLOAD DUP2 LT PUSH2 0x673 JUMPI PUSH1 0x0 DUP1 REVERT JUMPDEST SWAP1 PUSH1 0x0 MSTORE PUSH1 0x20 PUSH1 0x0 KECCAK256 SWAP1 PUSH1 0x2 MUL ADD PUSH1 0x0 SWAP2 POP SWAP1 POP DUP1 PUSH1 0x0 ADD PUSH1 0x0 SWAP1 SLOAD SWAP1 PUSH2 0x100 EXP SWAP1 DIV PUSH20 0xFFFFFFFFFFFFFFFFFFFFFFFFFFFFFFFFFFFFFFFF AND SWAP1 DUP1 PUSH1 0x1 ADD PUSH1 0x0 SWAP1 SLOAD SWAP1 PUSH2 0x100 EXP SWAP1 DIV PUSH20 0xFFFFFFFFFFFFFFFFFFFFFFFFFFFFFFFFFFFFFFFF AND SWAP1 DUP1 PUSH1 0x1 ADD PUSH1 0x14 SWAP1 SLOAD SWAP1 PUSH2 0x100 EXP SWAP1 DIV PUSH1 0xFF AND SWAP1 DUP1 PUSH1 0x1 ADD PUSH1 0x15 SWAP1 SLOAD SWAP1 PUSH2 0x100 EXP SWAP1 DIV PUSH1 0xFF AND SWAP1 DUP1 PUSH1 0x1 ADD PUSH1 0x16 SWAP1 SLOAD SWAP1 PUSH2 0x100 EXP SWAP1 DIV PUSH1 0xFF AND SWAP1 POP DUP6 JUMP JUMPDEST PUSH1 0x9 PUSH1 0x20 MSTORE DUP2 PUSH1 0x0 MSTORE PUSH1 0x40 PUSH1 0x0 KECCAK256 PUSH1 0x20 MSTORE DUP1 PUSH1 0x0 MSTORE PUSH1 0x40 PUSH1 0x0 KECCAK256 PUSH1 0x0 SWAP2 POP SWAP2 POP POP DUP1 PUSH1 0x0 ADD SLOAD SWAP1 DUP1 PUSH1 0x1 ADD SLOAD SWAP1 DUP1 PUSH1 0x2 ADD SLOAD SWAP1 DUP1 PUSH1 0x3 ADD SLOAD SWAP1 POP DUP5 JUMP JUMPDEST PUSH1 0xA PUSH1 0x0 PUSH1 0x1 DUP1 SLOAD PUSH2 0x75F SWAP2 SWAP1 PUSH2 0x2256 JUMP JUMPDEST DUP2 MSTORE PUSH1 0x20 ADD SWAP1 DUP2 MSTORE PUSH1 0x20 ADD PUSH1 0x0 KECCAK256 CALLER SWAP1 DUP1 PUSH1 0x1 DUP2 SLOAD ADD DUP1 DUP3 SSTORE DUP1 SWAP2 POP POP PUSH1 0x1 SWAP1 SUB SWAP1 PUSH1 0x0 MSTORE PUSH1 0x20 PUSH1 0x0 KECCAK256 ADD PUSH1 0x0 SWAP1 SWAP2 SWAP1 SWAP2 SWAP1 SWAP2 PUSH2 0x100 EXP DUP2 SLOAD DUP2 PUSH20 0xFFFFFFFFFFFFFFFFFFFFFFFFFFFFFFFFFFFFFFFF MUL NOT AND SWAP1 DUP4 PUSH20 0xFFFFFFFFFFFFFFFFFFFFFFFFFFFFFFFFFFFFFFFF AND MUL OR SWAP1 SSTORE POP PUSH1 0x40 MLOAD DUP1 PUSH1 0x80 ADD PUSH1 0x40 MSTORE DUP1 DUP6 DUP2 MSTORE PUSH1 0x20 ADD DUP5 DUP2 MSTORE PUSH1 0x20 ADD DUP4 DUP2 MSTORE PUSH1 0x20 ADD DUP3 DUP2 MSTORE POP PUSH1 0x9 PUSH1 0x0 PUSH1 0x1 DUP1 SLOAD PUSH2 0x801 SWAP2 SWAP1 PUSH2 0x2256 JUMP JUMPDEST DUP2 MSTORE PUSH1 0x20 ADD SWAP1 DUP2 MSTORE PUSH1 0x20 ADD PUSH1 0x0 KECCAK256 PUSH1 0x0 CALLER PUSH20 0xFFFFFFFFFFFFFFFFFFFFFFFFFFFFFFFFFFFFFFFF AND PUSH20 0xFFFFFFFFFFFFFFFFFFFFFFFFFFFFFFFFFFFFFFFF AND DUP2 MSTORE PUSH1 0x20 ADD SWAP1 DUP2 MSTORE PUSH1 0x20 ADD PUSH1 0x0 KECCAK256 PUSH1 0x0 DUP3 ADD MLOAD DUP2 PUSH1 0x0 ADD SSTORE PUSH1 0x20 DUP3 ADD MLOAD DUP2 PUSH1 0x1 ADD SSTORE PUSH1 0x40 DUP3 ADD MLOAD DUP2 PUSH1 0x2 ADD SSTORE PUSH1 0x60 DUP3 ADD MLOAD DUP2 PUSH1 0x3 ADD SSTORE SWAP1 POP POP DUP4 PUSH1 0x2 PUSH1 0x0 DUP3 DUP3 SLOAD PUSH2 0x889 SWAP2 SWAP1 PUSH2 0x228A JUMP JUMPDEST SWAP3 POP POP DUP2 SWAP1 SSTORE POP DUP3 PUSH1 0x3 PUSH1 0x0 DUP3 DUP3 SLOAD PUSH2 0x8A2 SWAP2 SWAP1 PUSH2 0x228A JUMP JUMPDEST SWAP3 POP POP DUP2 SWAP1 SSTORE POP DUP2 PUSH1 0x4 PUSH1 0x0 DUP3 DUP3 SLOAD PUSH2 0x8BB SWAP2 SWAP1 PUSH2 0x228A JUMP JUMPDEST SWAP3 POP POP DUP2 SWAP1 SSTORE POP DUP1 PUSH1 0x5 PUSH1 0x0 DUP3 DUP3 SLOAD PUSH2 0x8D4 SWAP2 SWAP1 PUSH2 0x228A JUMP JUMPDEST SWAP3 POP POP DUP2 SWAP1 SSTORE POP POP POP POP POP JUMP JUMPDEST PUSH1 0x8 PUSH1 0x0 SWAP1 SLOAD SWAP1 PUSH2 0x100 EXP SWAP1 DIV PUSH20 0xFFFFFFFFFFFFFFFFFFFFFFFFFFFFFFFFFFFFFFFF AND DUP2 JUMP JUMPDEST PUSH1 0x0 PUSH1 0x1 DUP1 SLOAD PUSH2 0x917 SWAP2 SWAP1 PUSH2 0x2256 JUMP JUMPDEST DUP2 SLOAD DUP2 LT PUSH2 0x928 JUMPI PUSH2 0x927 PUSH2 0x22BE JUMP JUMPDEST JUMPDEST SWAP1 PUSH1 0x0 MSTORE PUSH1 0x20 PUSH1 0x0 KECCAK256 SWAP1 PUSH1 0x2 MUL ADD PUSH1 0x0 ADD PUSH1 0x0 SWAP1 SLOAD SWAP1 PUSH2 0x100 EXP SWAP1 DIV PUSH20 0xFFFFFFFFFFFFFFFFFFFFFFFFFFFFFFFFFFFFFFFF AND PUSH20 0xFFFFFFFFFFFFFFFFFFFFFFFFFFFFFFFFFFFFFFFF AND CALLER PUSH20 0xFFFFFFFFFFFFFFFFFFFFFFFFFFFFFFFFFFFFFFFF AND EQ PUSH2 0x9C7 JUMPI PUSH1 0x40 MLOAD PUSH32 0x8C379A000000000000000000000000000000000000000000000000000000000 DUP2 MSTORE PUSH1 0x4 ADD PUSH2 0x9BE SWAP1 PUSH2 0x2339 JUMP JUMPDEST PUSH1 0x40 MLOAD DUP1 SWAP2 SUB SWAP1 REVERT JUMPDEST DUP1 PUSH1 0x0 PUSH1 0x1 DUP1 SLOAD PUSH2 0x9D8 SWAP2 SWAP1 PUSH2 0x2256 JUMP JUMPDEST DUP2 SLOAD DUP2 LT PUSH2 0x9E9 JUMPI PUSH2 0x9E8 PUSH2 0x22BE JUMP JUMPDEST JUMPDEST SWAP1 PUSH1 0x0 MSTORE PUSH1 0x20 PUSH1 0x0 KECCAK256 SWAP1 PUSH1 0x2 MUL ADD PUSH1 0x1 ADD PUSH1 0x14 PUSH2 0x100 EXP DUP2 SLOAD DUP2 PUSH1 0xFF MUL NOT AND SWAP1 DUP4 PUSH1 0xFF AND MUL OR SWAP1 SSTORE POP POP JUMP JUMPDEST PUSH1 0x0 PUSH1 0x1 PUSH1 0xFF AND PUSH1 0x0 PUSH1 0x1 DUP1 SLOAD PUSH2 0xA2C SWAP2 SWAP1 PUSH2 0x2256 JUMP JUMPDEST DUP2 SLOAD DUP2 LT PUSH2 0xA3D JUMPI PUSH2 0xA3C PUSH2 0x22BE JUMP JUMPDEST JUMPDEST SWAP1 PUSH1 0x0 MSTORE PUSH1 0x20 PUSH1 0x0 KECCAK256 SWAP1 PUSH1 0x2 MUL ADD PUSH1 0x1 ADD PUSH1 0x14 SWAP1 SLOAD SWAP1 PUSH2 0x100 EXP SWAP1 DIV PUSH1 0xFF AND PUSH1 0xFF AND EQ DUP1 ISZERO PUSH2 0xAB1 JUMPI POP PUSH1 0x1 PUSH1 0xFF AND PUSH1 0x0 PUSH1 0x1 DUP1 SLOAD PUSH2 0xA7C SWAP2 SWAP1 PUSH2 0x2256 JUMP JUMPDEST DUP2 SLOAD DUP2 LT PUSH2 0xA8D JUMPI PUSH2 0xA8C PUSH2 0x22BE JUMP JUMPDEST JUMPDEST SWAP1 PUSH1 0x0 MSTORE PUSH1 0x20 PUSH1 0x0 KECCAK256 SWAP1 PUSH1 0x2 MUL ADD PUSH1 0x1 ADD PUSH1 0x15 SWAP1 SLOAD SWAP1 PUSH2 0x100 EXP SWAP1 DIV PUSH1 0xFF AND PUSH1 0xFF AND EQ JUMPDEST ISZERO PUSH2 0xABF JUMPI PUSH1 0x1 SWAP1 POP PUSH2 0xCB6 JUMP JUMPDEST PUSH1 0x2 PUSH1 0xFF AND PUSH1 0x0 PUSH1 0x1 DUP1 SLOAD PUSH2 0xAD4 SWAP2 SWAP1 PUSH2 0x2256 JUMP JUMPDEST DUP2 SLOAD DUP2 LT PUSH2 0xAE5 JUMPI PUSH2 0xAE4 PUSH2 0x22BE JUMP JUMPDEST JUMPDEST SWAP1 PUSH1 0x0 MSTORE PUSH1 0x20 PUSH1 0x0 KECCAK256 SWAP1 PUSH1 0x2 MUL ADD PUSH1 0x1 ADD PUSH1 0x14 SWAP1 SLOAD SWAP1 PUSH2 0x100 EXP SWAP1 DIV PUSH1 0xFF AND PUSH1 0xFF AND EQ DUP1 ISZERO PUSH2 0xB59 JUMPI POP PUSH1 0x2 PUSH1 0xFF AND PUSH1 0x0 PUSH1 0x1 DUP1 SLOAD PUSH2 0xB24 SWAP2 SWAP1 PUSH2 0x2256 JUMP JUMPDEST DUP2 SLOAD DUP2 LT PUSH2 0xB35 JUMPI PUSH2 0xB34 PUSH2 0x22BE JUMP JUMPDEST JUMPDEST SWAP1 PUSH1 0x0 MSTORE PUSH1 0x20 PUSH1 0x0 KECCAK256 SWAP1 PUSH1 0x2 MUL ADD PUSH1 0x1 ADD PUSH1 0x15 SWAP1 SLOAD SWAP1 PUSH2 0x100 EXP SWAP1 DIV PUSH1 0xFF AND PUSH1 0xFF AND EQ JUMPDEST ISZERO PUSH2 0xB67 JUMPI PUSH1 0x2 SWAP1 POP PUSH2 0xCB5 JUMP JUMPDEST PUSH1 0x1 PUSH1 0xFF AND PUSH1 0x0 PUSH1 0x1 DUP1 SLOAD PUSH2 0xB7C SWAP2 SWAP1 PUSH2 0x2256 JUMP JUMPDEST DUP2 SLOAD DUP2 LT PUSH2 0xB8D JUMPI PUSH2 0xB8C PUSH2 0x22BE JUMP JUMPDEST JUMPDEST SWAP1 PUSH1 0x0 MSTORE PUSH1 0x20 PUSH1 0x0 KECCAK256 SWAP1 PUSH1 0x2 MUL ADD PUSH1 0x1 ADD PUSH1 0x14 SWAP1 SLOAD SWAP1 PUSH2 0x100 EXP SWAP1 DIV PUSH1 0xFF AND PUSH1 0xFF AND EQ DUP1 ISZERO PUSH2 0xC01 JUMPI POP PUSH1 0x2 PUSH1 0xFF AND PUSH1 0x0 PUSH1 0x1 DUP1 SLOAD PUSH2 0xBCC SWAP2 SWAP1 PUSH2 0x2256 JUMP JUMPDEST DUP2 SLOAD DUP2 LT PUSH2 0xBDD JUMPI PUSH2 0xBDC PUSH2 0x22BE JUMP JUMPDEST JUMPDEST SWAP1 PUSH1 0x0 MSTORE PUSH1 0x20 PUSH1 0x0 KECCAK256 SWAP1 PUSH1 0x2 MUL ADD PUSH1 0x1 ADD PUSH1 0x15 SWAP1 SLOAD SWAP1 PUSH2 0x100 EXP SWAP1 DIV PUSH1 0xFF AND PUSH1 0xFF AND EQ JUMPDEST ISZERO PUSH2 0xC0F JUMPI PUSH1 0x3 SWAP1 POP PUSH2 0xCB4 JUMP JUMPDEST PUSH1 0x2 PUSH1 0xFF AND PUSH1 0x0 PUSH1 0x1 DUP1 SLOAD PUSH2 0xC24 SWAP2 SWAP1 PUSH2 0x2256 JUMP JUMPDEST DUP2 SLOAD DUP2 LT PUSH2 0xC35 JUMPI PUSH2 0xC34 PUSH2 0x22BE JUMP JUMPDEST JUMPDEST SWAP1 PUSH1 0x0 MSTORE PUSH1 0x20 PUSH1 0x0 KECCAK256 SWAP1 PUSH1 0x2 MUL ADD PUSH1 0x1 ADD PUSH1 0x14 SWAP1 SLOAD SWAP1 PUSH2 0x100 EXP SWAP1 DIV PUSH1 0xFF AND PUSH1 0xFF AND EQ DUP1 ISZERO PUSH2 0xCA9 JUMPI POP PUSH1 0x1 PUSH1 0xFF AND PUSH1 0x0 PUSH1 0x1 DUP1 SLOAD PUSH2 0xC74 SWAP2 SWAP1 PUSH2 0x2256 JUMP JUMPDEST DUP2 SLOAD DUP2 LT PUSH2 0xC85 JUMPI PUSH2 0xC84 PUSH2 0x22BE JUMP JUMPDEST JUMPDEST SWAP1 PUSH1 0x0 MSTORE PUSH1 0x20 PUSH1 0x0 KECCAK256 SWAP1 PUSH1 0x2 MUL ADD PUSH1 0x1 ADD PUSH1 0x15 SWAP1 SLOAD SWAP1 PUSH2 0x100 EXP SWAP1 DIV PUSH1 0xFF AND PUSH1 0xFF AND EQ JUMPDEST ISZERO PUSH2 0xCB3 JUMPI PUSH1 0x4 SWAP1 POP JUMPDEST JUMPDEST JUMPDEST JUMPDEST DUP1 PUSH1 0x0 PUSH1 0x1 DUP1 SLOAD PUSH2 0xCC7 SWAP2 SWAP1 PUSH2 0x2256 JUMP JUMPDEST DUP2 SLOAD DUP2 LT PUSH2 0xCD8 JUMPI PUSH2 0xCD7 PUSH2 0x22BE JUMP JUMPDEST JUMPDEST SWAP1 PUSH1 0x0 MSTORE PUSH1 0x20 PUSH1 0x0 KECCAK256 SWAP1 PUSH1 0x2 MUL ADD PUSH1 0x1 ADD PUSH1 0x16 PUSH2 0x100 EXP DUP2 SLOAD DUP2 PUSH1 0xFF MUL NOT AND SWAP1 DUP4 PUSH1 0xFF AND MUL OR SWAP1 SSTORE POP POP JUMP JUMPDEST PUSH1 0x0 PUSH1 0x1 DUP1 SLOAD PUSH2 0xD14 SWAP2 SWAP1 PUSH2 0x2256 JUMP JUMPDEST DUP2 SLOAD DUP2 LT PUSH2 0xD25 JUMPI PUSH2 0xD24 PUSH2 0x22BE JUMP JUMPDEST JUMPDEST SWAP1 PUSH1 0x0 MSTORE PUSH1 0x20 PUSH1 0x0 KECCAK256 SWAP1 PUSH1 0x2 MUL ADD PUSH1 0x1 ADD PUSH1 0x0 SWAP1 SLOAD SWAP1 PUSH2 0x100 EXP SWAP1 DIV PUSH20 0xFFFFFFFFFFFFFFFFFFFFFFFFFFFFFFFFFFFFFFFF AND PUSH20 0xFFFFFFFFFFFFFFFFFFFFFFFFFFFFFFFFFFFFFFFF AND CALLER PUSH20 0xFFFFFFFFFFFFFFFFFFFFFFFFFFFFFFFFFFFFFFFF AND EQ PUSH2 0xDC4 JUMPI PUSH1 0x40 MLOAD PUSH32 0x8C379A000000000000000000000000000000000000000000000000000000000 DUP2 MSTORE PUSH1 0x4 ADD PUSH2 0xDBB SWAP1 PUSH2 0x2339 JUMP JUMPDEST PUSH1 0x40 MLOAD DUP1 SWAP2 SUB SWAP1 REVERT JUMPDEST DUP1 PUSH1 0x0 PUSH1 0x1 DUP1 SLOAD PUSH2 0xDD5 SWAP2 SWAP1 PUSH2 0x2256 JUMP JUMPDEST DUP2 SLOAD DUP2 LT PUSH2 0xDE6 JUMPI PUSH2 0xDE5 PUSH2 0x22BE JUMP JUMPDEST JUMPDEST SWAP1 PUSH1 0x0 MSTORE PUSH1 0x20 PUSH1 0x0 KECCAK256 SWAP1 PUSH1 0x2 MUL ADD PUSH1 0x1 ADD PUSH1 0x15 PUSH2 0x100 EXP DUP2 SLOAD DUP2 PUSH1 0xFF MUL NOT AND SWAP1 DUP4 PUSH1 0xFF AND MUL OR SWAP1 SSTORE POP POP JUMP JUMPDEST PUSH1 0x7 PUSH1 0x0 SWAP1 SLOAD SWAP1 PUSH2 0x100 EXP SWAP1 DIV PUSH20 0xFFFFFFFFFFFFFFFFFFFFFFFFFFFFFFFFFFFFFFFF AND DUP2 JUMP JUMPDEST PUSH1 0x1 PUSH1 0xFF AND PUSH1 0x0 PUSH1 0x1 DUP1 SLOAD PUSH2 0xE4D SWAP2 SWAP1 PUSH2 0x2256 JUMP JUMPDEST DUP2 SLOAD DUP2 LT PUSH2 0xE5E JUMPI PUSH2 0xE5D PUSH2 0x22BE JUMP JUMPDEST JUMPDEST SWAP1 PUSH1 0x0 MSTORE PUSH1 0x20 PUSH1 0x0 KECCAK256 SWAP1 PUSH1 0x2 MUL ADD PUSH1 0x1 ADD PUSH1 0x16 SWAP1 SLOAD SWAP1 PUSH2 0x100 EXP SWAP1 DIV PUSH1 0xFF AND PUSH1 0xFF AND SUB PUSH2 0x1148 JUMPI PUSH1 0x0 PUSH1 0x5 SLOAD PUSH1 0x4 SLOAD PUSH1 0x3 SLOAD PUSH2 0xE9A SWAP2 SWAP1 PUSH2 0x228A JUMP JUMPDEST PUSH2 0xEA4 SWAP2 SWAP1 PUSH2 0x228A JUMP JUMPDEST SWAP1 POP PUSH1 0x0 JUMPDEST PUSH1 0xA PUSH1 0x0 PUSH1 0x1 DUP1 SLOAD PUSH2 0xEBB SWAP2 SWAP1 PUSH2 0x2256 JUMP JUMPDEST DUP2 MSTORE PUSH1 0x20 ADD SWAP1 DUP2 MSTORE PUSH1 0x20 ADD PUSH1 0x0 KECCAK256 DUP1 SLOAD SWAP1 POP DUP2 LT ISZERO PUSH2 0x1141 JUMPI PUSH1 0x0 PUSH1 0x2 SLOAD DUP4 PUSH1 0x9 PUSH1 0x0 PUSH1 0x1 DUP1 SLOAD PUSH2 0xEEC SWAP2 SWAP1 PUSH2 0x2256 JUMP JUMPDEST DUP2 MSTORE PUSH1 0x20 ADD SWAP1 DUP2 MSTORE PUSH1 0x20 ADD PUSH1 0x0 KECCAK256 PUSH1 0x0 PUSH1 0xA PUSH1 0x0 PUSH1 0x1 DUP1 SLOAD PUSH2 0xF0E SWAP2 SWAP1 PUSH2 0x2256 JUMP JUMPDEST DUP2 MSTORE PUSH1 0x20 ADD SWAP1 DUP2 MSTORE PUSH1 0x20 ADD PUSH1 0x0 KECCAK256 DUP7 DUP2 SLOAD DUP2 LT PUSH2 0xF2E JUMPI PUSH2 0xF2D PUSH2 0x22BE JUMP JUMPDEST JUMPDEST SWAP1 PUSH1 0x0 MSTORE PUSH1 0x20 PUSH1 0x0 KECCAK256 ADD PUSH1 0x0 SWAP1 SLOAD SWAP1 PUSH2 0x100 EXP SWAP1 DIV PUSH20 0xFFFFFFFFFFFFFFFFFFFFFFFFFFFFFFFFFFFFFFFF AND PUSH20 0xFFFFFFFFFFFFFFFFFFFFFFFFFFFFFFFFFFFFFFFF AND PUSH20 0xFFFFFFFFFFFFFFFFFFFFFFFFFFFFFFFFFFFFFFFF AND DUP2 MSTORE PUSH1 0x20 ADD SWAP1 DUP2 MSTORE PUSH1 0x20 ADD PUSH1 0x0 KECCAK256 PUSH1 0x0 ADD SLOAD PUSH2 0xFA1 SWAP2 SWAP1 PUSH2 0x2359 JUMP JUMPDEST PUSH2 0xFAB SWAP2 SWAP1 PUSH2 0x23CA JUMP JUMPDEST SWAP1 POP PUSH1 0x9 PUSH1 0x0 PUSH1 0x1 DUP1 SLOAD PUSH2 0xFBF SWAP2 SWAP1 PUSH2 0x2256 JUMP JUMPDEST DUP2 MSTORE PUSH1 0x20 ADD SWAP1 DUP2 MSTORE PUSH1 0x20 ADD PUSH1 0x0 KECCAK256 PUSH1 0x0 PUSH1 0xA PUSH1 0x0 PUSH1 0x1 DUP1 SLOAD PUSH2 0xFE1 SWAP2 SWAP1 PUSH2 0x2256 JUMP JUMPDEST DUP2 MSTORE PUSH1 0x20 ADD SWAP1 DUP2 MSTORE PUSH1 0x20 ADD PUSH1 0x0 KECCAK256 DUP5 DUP2 SLOAD DUP2 LT PUSH2 0x1001 JUMPI PUSH2 0x1000 PUSH2 0x22BE JUMP JUMPDEST JUMPDEST SWAP1 PUSH1 0x0 MSTORE PUSH1 0x20 PUSH1 0x0 KECCAK256 ADD PUSH1 0x0 SWAP1 SLOAD SWAP1 PUSH2 0x100 EXP SWAP1 DIV PUSH20 0xFFFFFFFFFFFFFFFFFFFFFFFFFFFFFFFFFFFFFFFF AND PUSH20 0xFFFFFFFFFFFFFFFFFFFFFFFFFFFFFFFFFFFFFFFF AND PUSH20 0xFFFFFFFFFFFFFFFFFFFFFFFFFFFFFFFFFFFFFFFF AND DUP2 MSTORE PUSH1 0x20 ADD SWAP1 DUP2 MSTORE PUSH1 0x20 ADD PUSH1 0x0 KECCAK256 PUSH1 0x0 ADD SLOAD DUP2 PUSH2 0x1075 SWAP2 SWAP1 PUSH2 0x228A JUMP JUMPDEST SWAP1 POP PUSH1 0xA PUSH1 0x0 PUSH1 0x1 DUP1 SLOAD PUSH2 0x1089 SWAP2 SWAP1 PUSH2 0x2256 JUMP JUMPDEST DUP2 MSTORE PUSH1 0x20 ADD SWAP1 DUP2 MSTORE PUSH1 0x20 ADD PUSH1 0x0 KECCAK256 DUP3 DUP2 SLOAD DUP2 LT PUSH2 0x10A9 JUMPI PUSH2 0x10A8 PUSH2 0x22BE JUMP JUMPDEST JUMPDEST SWAP1 PUSH1 0x0 MSTORE PUSH1 0x20 PUSH1 0x0 KECCAK256 ADD PUSH1 0x0 SWAP1 SLOAD SWAP1 PUSH2 0x100 EXP SWAP1 DIV PUSH20 0xFFFFFFFFFFFFFFFFFFFFFFFFFFFFFFFFFFFFFFFF AND PUSH20 0xFFFFFFFFFFFFFFFFFFFFFFFFFFFFFFFFFFFFFFFF AND PUSH2 0x8FC PUSH8 0xDE0B6B3A7640000 DUP4 PUSH2 0x1101 SWAP2 SWAP1 PUSH2 0x2359 JUMP JUMPDEST SWAP1 DUP2 ISZERO MUL SWAP1 PUSH1 0x40 MLOAD PUSH1 0x0 PUSH1 0x40 MLOAD DUP1 DUP4 SUB DUP2 DUP6 DUP9 DUP9 CALL SWAP4 POP POP POP POP ISZERO DUP1 ISZERO PUSH2 0x112C JUMPI RETURNDATASIZE PUSH1 0x0 DUP1 RETURNDATACOPY RETURNDATASIZE PUSH1 0x0 REVERT JUMPDEST POP POP DUP1 DUP1 PUSH2 0x1139 SWAP1 PUSH2 0x220E JUMP JUMPDEST SWAP2 POP POP PUSH2 0xEA9 JUMP JUMPDEST POP POP PUSH2 0x1D63 JUMP JUMPDEST PUSH1 0x2 PUSH1 0xFF AND PUSH1 0x0 PUSH1 0x1 DUP1 SLOAD PUSH2 0x115D SWAP2 SWAP1 PUSH2 0x2256 JUMP JUMPDEST DUP2 SLOAD DUP2 LT PUSH2 0x116E JUMPI PUSH2 0x116D PUSH2 0x22BE JUMP JUMPDEST JUMPDEST SWAP1 PUSH1 0x0 MSTORE PUSH1 0x20 PUSH1 0x0 KECCAK256 SWAP1 PUSH1 0x2 MUL ADD PUSH1 0x1 ADD PUSH1 0x16 SWAP1 SLOAD SWAP1 PUSH2 0x100 EXP SWAP1 DIV PUSH1 0xFF AND PUSH1 0xFF AND SUB PUSH2 0x15D4 JUMPI PUSH1 0x0 PUSH1 0x2 PUSH1 0x5 SLOAD PUSH1 0x4 SLOAD PUSH1 0x2 SLOAD PUSH2 0x11AC SWAP2 SWAP1 PUSH2 0x228A JUMP JUMPDEST PUSH2 0x11B6 SWAP2 SWAP1 PUSH2 0x228A JUMP JUMPDEST PUSH2 0x11C0 SWAP2 SWAP1 PUSH2 0x23CA JUMP JUMPDEST SWAP1 POP PUSH1 0x0 JUMPDEST PUSH1 0xA PUSH1 0x0 PUSH1 0x1 DUP1 SLOAD PUSH2 0x11D7 SWAP2 SWAP1 PUSH2 0x2256 JUMP JUMPDEST DUP2 MSTORE PUSH1 0x20 ADD SWAP1 DUP2 MSTORE PUSH1 0x20 ADD PUSH1 0x0 KECCAK256 DUP1 SLOAD SWAP1 POP DUP2 LT ISZERO PUSH2 0x145D JUMPI PUSH1 0x0 PUSH1 0x3 SLOAD DUP4 PUSH1 0x9 PUSH1 0x0 PUSH1 0x1 DUP1 SLOAD PUSH2 0x1208 SWAP2 SWAP1 PUSH2 0x2256 JUMP JUMPDEST DUP2 MSTORE PUSH1 0x20 ADD SWAP1 DUP2 MSTORE PUSH1 0x20 ADD PUSH1 0x0 KECCAK256 PUSH1 0x0 PUSH1 0xA PUSH1 0x0 PUSH1 0x1 DUP1 SLOAD PUSH2 0x122A SWAP2 SWAP1 PUSH2 0x2256 JUMP JUMPDEST DUP2 MSTORE PUSH1 0x20 ADD SWAP1 DUP2 MSTORE PUSH1 0x20 ADD PUSH1 0x0 KECCAK256 DUP7 DUP2 SLOAD DUP2 LT PUSH2 0x124A JUMPI PUSH2 0x1249 PUSH2 0x22BE JUMP JUMPDEST JUMPDEST SWAP1 PUSH1 0x0 MSTORE PUSH1 0x20 PUSH1 0x0 KECCAK256 ADD PUSH1 0x0 SWAP1 SLOAD SWAP1 PUSH2 0x100 EXP SWAP1 DIV PUSH20 0xFFFFFFFFFFFFFFFFFFFFFFFFFFFFFFFFFFFFFFFF AND PUSH20 0xFFFFFFFFFFFFFFFFFFFFFFFFFFFFFFFFFFFFFFFF AND PUSH20 0xFFFFFFFFFFFFFFFFFFFFFFFFFFFFFFFFFFFFFFFF AND DUP2 MSTORE PUSH1 0x20 ADD SWAP1 DUP2 MSTORE PUSH1 0x20 ADD PUSH1 0x0 KECCAK256 PUSH1 0x1 ADD SLOAD PUSH2 0x12BD SWAP2 SWAP1 PUSH2 0x2359 JUMP JUMPDEST PUSH2 0x12C7 SWAP2 SWAP1 PUSH2 0x23CA JUMP JUMPDEST SWAP1 POP PUSH1 0x9 PUSH1 0x0 PUSH1 0x1 DUP1 SLOAD PUSH2 0x12DB SWAP2 SWAP1 PUSH2 0x2256 JUMP JUMPDEST DUP2 MSTORE PUSH1 0x20 ADD SWAP1 DUP2 MSTORE PUSH1 0x20 ADD PUSH1 0x0 KECCAK256 PUSH1 0x0 PUSH1 0xA PUSH1 0x0 PUSH1 0x1 DUP1 SLOAD PUSH2 0x12FD SWAP2 SWAP1 PUSH2 0x2256 JUMP JUMPDEST DUP2 MSTORE PUSH1 0x20 ADD SWAP1 DUP2 MSTORE PUSH1 0x20 ADD PUSH1 0x0 KECCAK256 DUP5 DUP2 SLOAD DUP2 LT PUSH2 0x131D JUMPI PUSH2 0x131C PUSH2 0x22BE JUMP JUMPDEST JUMPDEST SWAP1 PUSH1 0x0 MSTORE PUSH1 0x20 PUSH1 0x0 KECCAK256 ADD PUSH1 0x0 SWAP1 SLOAD SWAP1 PUSH2 0x100 EXP SWAP1 DIV PUSH20 0xFFFFFFFFFFFFFFFFFFFFFFFFFFFFFFFFFFFFFFFF AND PUSH20 0xFFFFFFFFFFFFFFFFFFFFFFFFFFFFFFFFFFFFFFFF AND PUSH20 0xFFFFFFFFFFFFFFFFFFFFFFFFFFFFFFFFFFFFFFFF AND DUP2 MSTORE PUSH1 0x20 ADD SWAP1 DUP2 MSTORE PUSH1 0x20 ADD PUSH1 0x0 KECCAK256 PUSH1 0x1 ADD SLOAD DUP2 PUSH2 0x1391 SWAP2 SWAP1 PUSH2 0x228A JUMP JUMPDEST SWAP1 POP PUSH1 0xA PUSH1 0x0 PUSH1 0x1 DUP1 SLOAD PUSH2 0x13A5 SWAP2 SWAP1 PUSH2 0x2256 JUMP JUMPDEST DUP2 MSTORE PUSH1 0x20 ADD SWAP1 DUP2 MSTORE PUSH1 0x20 ADD PUSH1 0x0 KECCAK256 DUP3 DUP2 SLOAD DUP2 LT PUSH2 0x13C5 JUMPI PUSH2 0x13C4 PUSH2 0x22BE JUMP JUMPDEST JUMPDEST SWAP1 PUSH1 0x0 MSTORE PUSH1 0x20 PUSH1 0x0 KECCAK256 ADD PUSH1 0x0 SWAP1 SLOAD SWAP1 PUSH2 0x100 EXP SWAP1 DIV PUSH20 0xFFFFFFFFFFFFFFFFFFFFFFFFFFFFFFFFFFFFFFFF AND PUSH20 0xFFFFFFFFFFFFFFFFFFFFFFFFFFFFFFFFFFFFFFFF AND PUSH2 0x8FC PUSH8 0xDE0B6B3A7640000 DUP4 PUSH2 0x141D SWAP2 SWAP1 PUSH2 0x2359 JUMP JUMPDEST SWAP1 DUP2 ISZERO MUL SWAP1 PUSH1 0x40 MLOAD PUSH1 0x0 PUSH1 0x40 MLOAD DUP1 DUP4 SUB DUP2 DUP6 DUP9 DUP9 CALL SWAP4 POP POP POP POP ISZERO DUP1 ISZERO PUSH2 0x1448 JUMPI RETURNDATASIZE PUSH1 0x0 DUP1 RETURNDATACOPY RETURNDATASIZE PUSH1 0x0 REVERT JUMPDEST POP POP DUP1 DUP1 PUSH2 0x1455 SWAP1 PUSH2 0x220E JUMP JUMPDEST SWAP2 POP POP PUSH2 0x11C5 JUMP JUMPDEST POP PUSH1 0x0 PUSH1 0x1 DUP1 SLOAD PUSH2 0x146E SWAP2 SWAP1 PUSH2 0x2256 JUMP JUMPDEST DUP2 SLOAD DUP2 LT PUSH2 0x147F JUMPI PUSH2 0x147E PUSH2 0x22BE JUMP JUMPDEST JUMPDEST SWAP1 PUSH1 0x0 MSTORE PUSH1 0x20 PUSH1 0x0 KECCAK256 SWAP1 PUSH1 0x2 MUL ADD PUSH1 0x0 ADD PUSH1 0x0 SWAP1 SLOAD SWAP1 PUSH2 0x100 EXP SWAP1 DIV PUSH20 0xFFFFFFFFFFFFFFFFFFFFFFFFFFFFFFFFFFFFFFFF AND PUSH20 0xFFFFFFFFFFFFFFFFFFFFFFFFFFFFFFFFFFFFFFFF AND PUSH2 0x8FC PUSH1 0x2 PUSH8 0xDE0B6B3A7640000 DUP5 PUSH2 0x14E0 SWAP2 SWAP1 PUSH2 0x2359 JUMP JUMPDEST PUSH2 0x14EA SWAP2 SWAP1 PUSH2 0x23CA JUMP JUMPDEST SWAP1 DUP2 ISZERO MUL SWAP1 PUSH1 0x40 MLOAD PUSH1 0x0 PUSH1 0x40 MLOAD DUP1 DUP4 SUB DUP2 DUP6 DUP9 DUP9 CALL SWAP4 POP POP POP POP ISZERO DUP1 ISZERO PUSH2 0x1515 JUMPI RETURNDATASIZE PUSH1 0x0 DUP1 RETURNDATACOPY RETURNDATASIZE PUSH1 0x0 REVERT JUMPDEST POP PUSH1 0x0 PUSH1 0x1 DUP1 SLOAD PUSH2 0x1526 SWAP2 SWAP1 PUSH2 0x2256 JUMP JUMPDEST DUP2 SLOAD DUP2 LT PUSH2 0x1537 JUMPI PUSH2 0x1536 PUSH2 0x22BE JUMP JUMPDEST JUMPDEST SWAP1 PUSH1 0x0 MSTORE PUSH1 0x20 PUSH1 0x0 KECCAK256 SWAP1 PUSH1 0x2 MUL ADD PUSH1 0x1 ADD PUSH1 0x0 SWAP1 SLOAD SWAP1 PUSH2 0x100 EXP SWAP1 DIV PUSH20 0xFFFFFFFFFFFFFFFFFFFFFFFFFFFFFFFFFFFFFFFF AND PUSH20 0xFFFFFFFFFFFFFFFFFFFFFFFFFFFFFFFFFFFFFFFF AND PUSH2 0x8FC PUSH1 0x2 PUSH8 0xDE0B6B3A7640000 DUP5 PUSH2 0x1598 SWAP2 SWAP1 PUSH2 0x2359 JUMP JUMPDEST PUSH2 0x15A2 SWAP2 SWAP1 PUSH2 0x23CA JUMP JUMPDEST SWAP1 DUP2 ISZERO MUL SWAP1 PUSH1 0x40 MLOAD PUSH1 0x0 PUSH1 0x40 MLOAD DUP1 DUP4 SUB DUP2 DUP6 DUP9 DUP9 CALL SWAP4 POP POP POP POP ISZERO DUP1 ISZERO PUSH2 0x15CD JUMPI RETURNDATASIZE PUSH1 0x0 DUP1 RETURNDATACOPY RETURNDATASIZE PUSH1 0x0 REVERT JUMPDEST POP POP PUSH2 0x1D62 JUMP JUMPDEST PUSH1 0x3 PUSH1 0xFF AND PUSH1 0x0 PUSH1 0x1 DUP1 SLOAD PUSH2 0x15E9 SWAP2 SWAP1 PUSH2 0x2256 JUMP JUMPDEST DUP2 SLOAD DUP2 LT PUSH2 0x15FA JUMPI PUSH2 0x15F9 PUSH2 0x22BE JUMP JUMPDEST JUMPDEST SWAP1 PUSH1 0x0 MSTORE PUSH1 0x20 PUSH1 0x0 KECCAK256 SWAP1 PUSH1 0x2 MUL ADD PUSH1 0x1 ADD PUSH1 0x16 SWAP1 SLOAD SWAP1 PUSH2 0x100 EXP SWAP1 DIV PUSH1 0xFF AND PUSH1 0xFF AND SUB PUSH2 0x199C JUMPI PUSH1 0x0 PUSH1 0x2 PUSH1 0x5 SLOAD PUSH1 0x3 SLOAD PUSH1 0x2 SLOAD PUSH2 0x1638 SWAP2 SWAP1 PUSH2 0x228A JUMP JUMPDEST PUSH2 0x1642 SWAP2 SWAP1 PUSH2 0x228A JUMP JUMPDEST PUSH2 0x164C SWAP2 SWAP1 PUSH2 0x23CA JUMP JUMPDEST SWAP1 POP PUSH1 0x0 JUMPDEST PUSH1 0xA PUSH1 0x0 PUSH1 0x1 DUP1 SLOAD PUSH2 0x1663 SWAP2 SWAP1 PUSH2 0x2256 JUMP JUMPDEST DUP2 MSTORE PUSH1 0x20 ADD SWAP1 DUP2 MSTORE PUSH1 0x20 ADD PUSH1 0x0 KECCAK256 DUP1 SLOAD SWAP1 POP DUP2 LT ISZERO PUSH2 0x18E9 JUMPI PUSH1 0x0 PUSH1 0x4 SLOAD DUP4 PUSH1 0x9 PUSH1 0x0 PUSH1 0x1 DUP1 SLOAD PUSH2 0x1694 SWAP2 SWAP1 PUSH2 0x2256 JUMP JUMPDEST DUP2 MSTORE PUSH1 0x20 ADD SWAP1 DUP2 MSTORE PUSH1 0x20 ADD PUSH1 0x0 KECCAK256 PUSH1 0x0 PUSH1 0xA PUSH1 0x0 PUSH1 0x1 DUP1 SLOAD PUSH2 0x16B6 SWAP2 SWAP1 PUSH2 0x2256 JUMP JUMPDEST DUP2 MSTORE PUSH1 0x20 ADD SWAP1 DUP2 MSTORE PUSH1 0x20 ADD PUSH1 0x0 KECCAK256 DUP7 DUP2 SLOAD DUP2 LT PUSH2 0x16D6 JUMPI PUSH2 0x16D5 PUSH2 0x22BE JUMP JUMPDEST JUMPDEST SWAP1 PUSH1 0x0 MSTORE PUSH1 0x20 PUSH1 0x0 KECCAK256 ADD PUSH1 0x0 SWAP1 SLOAD SWAP1 PUSH2 0x100 EXP SWAP1 DIV PUSH20 0xFFFFFFFFFFFFFFFFFFFFFFFFFFFFFFFFFFFFFFFF AND PUSH20 0xFFFFFFFFFFFFFFFFFFFFFFFFFFFFFFFFFFFFFFFF AND PUSH20 0xFFFFFFFFFFFFFFFFFFFFFFFFFFFFFFFFFFFFFFFF AND DUP2 MSTORE PUSH1 0x20 ADD SWAP1 DUP2 MSTORE PUSH1 0x20 ADD PUSH1 0x0 KECCAK256 PUSH1 0x2 ADD SLOAD PUSH2 0x1749 SWAP2 SWAP1 PUSH2 0x2359 JUMP JUMPDEST PUSH2 0x1753 SWAP2 SWAP1 PUSH2 0x23CA JUMP JUMPDEST SWAP1 POP PUSH1 0x9 PUSH1 0x0 PUSH1 0x1 DUP1 SLOAD PUSH2 0x1767 SWAP2 SWAP1 PUSH2 0x2256 JUMP JUMPDEST DUP2 MSTORE PUSH1 0x20 ADD SWAP1 DUP2 MSTORE PUSH1 0x20 ADD PUSH1 0x0 KECCAK256 PUSH1 0x0 PUSH1 0xA PUSH1 0x0 PUSH1 0x1 DUP1 SLOAD PUSH2 0x1789 SWAP2 SWAP1 PUSH2 0x2256 JUMP JUMPDEST DUP2 MSTORE PUSH1 0x20 ADD SWAP1 DUP2 MSTORE PUSH1 0x20 ADD PUSH1 0x0 KECCAK256 DUP5 DUP2 SLOAD DUP2 LT PUSH2 0x17A9 JUMPI PUSH2 0x17A8 PUSH2 0x22BE JUMP JUMPDEST JUMPDEST SWAP1 PUSH1 0x0 MSTORE PUSH1 0x20 PUSH1 0x0 KECCAK256 ADD PUSH1 0x0 SWAP1 SLOAD SWAP1 PUSH2 0x100 EXP SWAP1 DIV PUSH20 0xFFFFFFFFFFFFFFFFFFFFFFFFFFFFFFFFFFFFFFFF AND PUSH20 0xFFFFFFFFFFFFFFFFFFFFFFFFFFFFFFFFFFFFFFFF AND PUSH20 0xFFFFFFFFFFFFFFFFFFFFFFFFFFFFFFFFFFFFFFFF AND DUP2 MSTORE PUSH1 0x20 ADD SWAP1 DUP2 MSTORE PUSH1 0x20 ADD PUSH1 0x0 KECCAK256 PUSH1 0x2 ADD SLOAD DUP2 PUSH2 0x181D SWAP2 SWAP1 PUSH2 0x228A JUMP JUMPDEST SWAP1 POP PUSH1 0xA PUSH1 0x0 PUSH1 0x1 DUP1 SLOAD PUSH2 0x1831 SWAP2 SWAP1 PUSH2 0x2256 JUMP JUMPDEST DUP2 MSTORE PUSH1 0x20 ADD SWAP1 DUP2 MSTORE PUSH1 0x20 ADD PUSH1 0x0 KECCAK256 DUP3 DUP2 SLOAD DUP2 LT PUSH2 0x1851 JUMPI PUSH2 0x1850 PUSH2 0x22BE JUMP JUMPDEST JUMPDEST SWAP1 PUSH1 0x0 MSTORE PUSH1 0x20 PUSH1 0x0 KECCAK256 ADD PUSH1 0x0 SWAP1 SLOAD SWAP1 PUSH2 0x100 EXP SWAP1 DIV PUSH20 0xFFFFFFFFFFFFFFFFFFFFFFFFFFFFFFFFFFFFFFFF AND PUSH20 0xFFFFFFFFFFFFFFFFFFFFFFFFFFFFFFFFFFFFFFFF AND PUSH2 0x8FC PUSH8 0xDE0B6B3A7640000 DUP4 PUSH2 0x18A9 SWAP2 SWAP1 PUSH2 0x2359 JUMP JUMPDEST SWAP1 DUP2 ISZERO MUL SWAP1 PUSH1 0x40 MLOAD PUSH1 0x0 PUSH1 0x40 MLOAD DUP1 DUP4 SUB DUP2 DUP6 DUP9 DUP9 CALL SWAP4 POP POP POP POP ISZERO DUP1 ISZERO PUSH2 0x18D4 JUMPI RETURNDATASIZE PUSH1 0x0 DUP1 RETURNDATACOPY RETURNDATASIZE PUSH1 0x0 REVERT JUMPDEST POP POP DUP1 DUP1 PUSH2 0x18E1 SWAP1 PUSH2 0x220E JUMP JUMPDEST SWAP2 POP POP PUSH2 0x1651 JUMP JUMPDEST POP PUSH1 0x0 PUSH1 0x1 DUP1 SLOAD PUSH2 0x18FA SWAP2 SWAP1 PUSH2 0x2256 JUMP JUMPDEST DUP2 SLOAD DUP2 LT PUSH2 0x190B JUMPI PUSH2 0x190A PUSH2 0x22BE JUMP JUMPDEST JUMPDEST SWAP1 PUSH1 0x0 MSTORE PUSH1 0x20 PUSH1 0x0 KECCAK256 SWAP1 PUSH1 0x2 MUL ADD PUSH1 0x0 ADD PUSH1 0x0 SWAP1 SLOAD SWAP1 PUSH2 0x100 EXP SWAP1 DIV PUSH20 0xFFFFFFFFFFFFFFFFFFFFFFFFFFFFFFFFFFFFFFFF AND PUSH20 0xFFFFFFFFFFFFFFFFFFFFFFFFFFFFFFFFFFFFFFFF AND PUSH2 0x8FC PUSH8 0xDE0B6B3A7640000 DUP4 PUSH2 0x196A SWAP2 SWAP1 PUSH2 0x2359 JUMP JUMPDEST SWAP1 DUP2 ISZERO MUL SWAP1 PUSH1 0x40 MLOAD PUSH1 0x0 PUSH1 0x40 MLOAD DUP1 DUP4 SUB DUP2 DUP6 DUP9 DUP9 CALL SWAP4 POP POP POP POP ISZERO DUP1 ISZERO PUSH2 0x1995 JUMPI RETURNDATASIZE PUSH1 0x0 DUP1 RETURNDATACOPY RETURNDATASIZE PUSH1 0x0 REVERT JUMPDEST POP POP PUSH2 0x1D61 JUMP JUMPDEST PUSH1 0x4 PUSH1 0xFF AND PUSH1 0x0 PUSH1 0x1 DUP1 SLOAD PUSH2 0x19B1 SWAP2 SWAP1 PUSH2 0x2256 JUMP JUMPDEST DUP2 SLOAD DUP2 LT PUSH2 0x19C2 JUMPI PUSH2 0x19C1 PUSH2 0x22BE JUMP JUMPDEST JUMPDEST SWAP1 PUSH1 0x0 MSTORE PUSH1 0x20 PUSH1 0x0 KECCAK256 SWAP1 PUSH1 0x2 MUL ADD PUSH1 0x1 ADD PUSH1 0x16 SWAP1 SLOAD SWAP1 PUSH2 0x100 EXP SWAP1 DIV PUSH1 0xFF AND PUSH1 0xFF AND SUB PUSH2 0x1D60 JUMPI PUSH1 0x0 PUSH1 0x2 PUSH1 0x4 SLOAD PUSH1 0x3 SLOAD PUSH1 0x2 SLOAD PUSH2 0x1A00 SWAP2 SWAP1 PUSH2 0x228A JUMP JUMPDEST PUSH2 0x1A0A SWAP2 SWAP1 PUSH2 0x228A JUMP JUMPDEST PUSH2 0x1A14 SWAP2 SWAP1 PUSH2 0x23CA JUMP JUMPDEST SWAP1 POP PUSH1 0x0 JUMPDEST PUSH1 0xA PUSH1 0x0 PUSH1 0x1 DUP1 SLOAD PUSH2 0x1A2B SWAP2 SWAP1 PUSH2 0x2256 JUMP JUMPDEST DUP2 MSTORE PUSH1 0x20 ADD SWAP1 DUP2 MSTORE PUSH1 0x20 ADD PUSH1 0x0 KECCAK256 DUP1 SLOAD SWAP1 POP DUP2 LT ISZERO PUSH2 0x1CB1 JUMPI PUSH1 0x0 PUSH1 0x5 SLOAD DUP4 PUSH1 0x9 PUSH1 0x0 PUSH1 0x1 DUP1 SLOAD PUSH2 0x1A5C SWAP2 SWAP1 PUSH2 0x2256 JUMP JUMPDEST DUP2 MSTORE PUSH1 0x20 ADD SWAP1 DUP2 MSTORE PUSH1 0x20 ADD PUSH1 0x0 KECCAK256 PUSH1 0x0 PUSH1 0xA PUSH1 0x0 PUSH1 0x1 DUP1 SLOAD PUSH2 0x1A7E SWAP2 SWAP1 PUSH2 0x2256 JUMP JUMPDEST DUP2 MSTORE PUSH1 0x20 ADD SWAP1 DUP2 MSTORE PUSH1 0x20 ADD PUSH1 0x0 KECCAK256 DUP7 DUP2 SLOAD DUP2 LT PUSH2 0x1A9E JUMPI PUSH2 0x1A9D PUSH2 0x22BE JUMP JUMPDEST JUMPDEST SWAP1 PUSH1 0x0 MSTORE PUSH1 0x20 PUSH1 0x0 KECCAK256 ADD PUSH1 0x0 SWAP1 SLOAD SWAP1 PUSH2 0x100 EXP SWAP1 DIV PUSH20 0xFFFFFFFFFFFFFFFFFFFFFFFFFFFFFFFFFFFFFFFF AND PUSH20 0xFFFFFFFFFFFFFFFFFFFFFFFFFFFFFFFFFFFFFFFF AND PUSH20 0xFFFFFFFFFFFFFFFFFFFFFFFFFFFFFFFFFFFFFFFF AND DUP2 MSTORE PUSH1 0x20 ADD SWAP1 DUP2 MSTORE PUSH1 0x20 ADD PUSH1 0x0 KECCAK256 PUSH1 0x3 ADD SLOAD PUSH2 0x1B11 SWAP2 SWAP1 PUSH2 0x2359 JUMP JUMPDEST PUSH2 0x1B1B SWAP2 SWAP1 PUSH2 0x23CA JUMP JUMPDEST SWAP1 POP PUSH1 0x9 PUSH1 0x0 PUSH1 0x1 DUP1 SLOAD PUSH2 0x1B2F SWAP2 SWAP1 PUSH2 0x2256 JUMP JUMPDEST DUP2 MSTORE PUSH1 0x20 ADD SWAP1 DUP2 MSTORE PUSH1 0x20 ADD PUSH1 0x0 KECCAK256 PUSH1 0x0 PUSH1 0xA PUSH1 0x0 PUSH1 0x1 DUP1 SLOAD PUSH2 0x1B51 SWAP2 SWAP1 PUSH2 0x2256 JUMP JUMPDEST DUP2 MSTORE PUSH1 0x20 ADD SWAP1 DUP2 MSTORE PUSH1 0x20 ADD PUSH1 0x0 KECCAK256 DUP5 DUP2 SLOAD DUP2 LT PUSH2 0x1B71 JUMPI PUSH2 0x1B70 PUSH2 0x22BE JUMP JUMPDEST JUMPDEST SWAP1 PUSH1 0x0 MSTORE PUSH1 0x20 PUSH1 0x0 KECCAK256 ADD PUSH1 0x0 SWAP1 SLOAD SWAP1 PUSH2 0x100 EXP SWAP1 DIV PUSH20 0xFFFFFFFFFFFFFFFFFFFFFFFFFFFFFFFFFFFFFFFF AND PUSH20 0xFFFFFFFFFFFFFFFFFFFFFFFFFFFFFFFFFFFFFFFF AND PUSH20 0xFFFFFFFFFFFFFFFFFFFFFFFFFFFFFFFFFFFFFFFF AND DUP2 MSTORE PUSH1 0x20 ADD SWAP1 DUP2 MSTORE PUSH1 0x20 ADD PUSH1 0x0 KECCAK256 PUSH1 0x3 ADD SLOAD DUP2 PUSH2 0x1BE5 SWAP2 SWAP1 PUSH2 0x228A JUMP JUMPDEST SWAP1 POP PUSH1 0xA PUSH1 0x0 PUSH1 0x1 DUP1 SLOAD PUSH2 0x1BF9 SWAP2 SWAP1 PUSH2 0x2256 JUMP JUMPDEST DUP2 MSTORE PUSH1 0x20 ADD SWAP1 DUP2 MSTORE PUSH1 0x20 ADD PUSH1 0x0 KECCAK256 DUP3 DUP2 SLOAD DUP2 LT PUSH2 0x1C19 JUMPI PUSH2 0x1C18 PUSH2 0x22BE JUMP JUMPDEST JUMPDEST SWAP1 PUSH1 0x0 MSTORE PUSH1 0x20 PUSH1 0x0 KECCAK256 ADD PUSH1 0x0 SWAP1 SLOAD SWAP1 PUSH2 0x100 EXP SWAP1 DIV PUSH20 0xFFFFFFFFFFFFFFFFFFFFFFFFFFFFFFFFFFFFFFFF AND PUSH20 0xFFFFFFFFFFFFFFFFFFFFFFFFFFFFFFFFFFFFFFFF AND PUSH2 0x8FC PUSH8 0xDE0B6B3A7640000 DUP4 PUSH2 0x1C71 SWAP2 SWAP1 PUSH2 0x2359 JUMP JUMPDEST SWAP1 DUP2 ISZERO MUL SWAP1 PUSH1 0x40 MLOAD PUSH1 0x0 PUSH1 0x40 MLOAD DUP1 DUP4 SUB DUP2 DUP6 DUP9 DUP9 CALL SWAP4 POP POP POP POP ISZERO DUP1 ISZERO PUSH2 0x1C9C JUMPI RETURNDATASIZE PUSH1 0x0 DUP1 RETURNDATACOPY RETURNDATASIZE PUSH1 0x0 REVERT JUMPDEST POP POP DUP1 DUP1 PUSH2 0x1CA9 SWAP1 PUSH2 0x220E JUMP JUMPDEST SWAP2 POP POP PUSH2 0x1A19 JUMP JUMPDEST POP PUSH1 0x0 PUSH1 0x1 DUP1 SLOAD PUSH2 0x1CC2 SWAP2 SWAP1 PUSH2 0x2256 JUMP JUMPDEST DUP2 SLOAD DUP2 LT PUSH2 0x1CD3 JUMPI PUSH2 0x1CD2 PUSH2 0x22BE JUMP JUMPDEST JUMPDEST SWAP1 PUSH1 0x0 MSTORE PUSH1 0x20 PUSH1 0x0 KECCAK256 SWAP1 PUSH1 0x2 MUL ADD PUSH1 0x1 ADD PUSH1 0x0 SWAP1 SLOAD SWAP1 PUSH2 0x100 EXP SWAP1 DIV PUSH20 0xFFFFFFFFFFFFFFFFFFFFFFFFFFFFFFFFFFFFFFFF AND PUSH20 0xFFFFFFFFFFFFFFFFFFFFFFFFFFFFFFFFFFFFFFFF AND PUSH2 0x8FC PUSH8 0xDE0B6B3A7640000 DUP4 PUSH2 0x1D32 SWAP2 SWAP1 PUSH2 0x2359 JUMP JUMPDEST SWAP1 DUP2 ISZERO MUL SWAP1 PUSH1 0x40 MLOAD PUSH1 0x0 PUSH1 0x40 MLOAD DUP1 DUP4 SUB DUP2 DUP6 DUP9 DUP9 CALL SWAP4 POP POP POP POP ISZERO DUP1 ISZERO PUSH2 0x1D5D JUMPI RETURNDATASIZE PUSH1 0x0 DUP1 RETURNDATACOPY RETURNDATASIZE PUSH1 0x0 REVERT JUMPDEST POP POP JUMPDEST JUMPDEST JUMPDEST JUMPDEST PUSH1 0x0 PUSH1 0x6 DUP2 SWAP1 SSTORE POP PUSH1 0x0 PUSH1 0x8 PUSH1 0x14 PUSH2 0x100 EXP DUP2 SLOAD DUP2 PUSH1 0xFF MUL NOT AND SWAP1 DUP4 ISZERO ISZERO MUL OR SWAP1 SSTORE POP PUSH1 0x0 PUSH1 0x2 DUP2 SWAP1 SSTORE POP PUSH1 0x0 PUSH1 0x3 DUP2 SWAP1 SSTORE POP PUSH1 0x0 PUSH1 0x4 DUP2 SWAP1 SSTORE POP PUSH1 0x0 PUSH1 0x5 DUP2 SWAP1 SSTORE POP JUMP JUMPDEST PUSH1 0x0 DUP1 REVERT JUMPDEST PUSH1 0x0 DUP2 SWAP1 POP SWAP2 SWAP1 POP JUMP JUMPDEST PUSH2 0x1DC0 DUP2 PUSH2 0x1DAD JUMP JUMPDEST DUP2 EQ PUSH2 0x1DCB JUMPI PUSH1 0x0 DUP1 REVERT JUMPDEST POP JUMP JUMPDEST PUSH1 0x0 DUP2 CALLDATALOAD SWAP1 POP PUSH2 0x1DDD DUP2 PUSH2 0x1DB7 JUMP JUMPDEST SWAP3 SWAP2 POP POP JUMP JUMPDEST PUSH1 0x0 DUP1 PUSH1 0x40 DUP4 DUP6 SUB SLT ISZERO PUSH2 0x1DFA JUMPI PUSH2 0x1DF9 PUSH2 0x1DA8 JUMP JUMPDEST JUMPDEST PUSH1 0x0 PUSH2 0x1E08 DUP6 DUP3 DUP7 ADD PUSH2 0x1DCE JUMP JUMPDEST SWAP3 POP POP PUSH1 0x20 PUSH2 0x1E19 DUP6 DUP3 DUP7 ADD PUSH2 0x1DCE JUMP JUMPDEST SWAP2 POP POP SWAP3 POP SWAP3 SWAP1 POP JUMP JUMPDEST PUSH1 0x0 PUSH20 0xFFFFFFFFFFFFFFFFFFFFFFFFFFFFFFFFFFFFFFFF DUP3 AND SWAP1 POP SWAP2 SWAP1 POP JUMP JUMPDEST PUSH1 0x0 PUSH2 0x1E4E DUP3 PUSH2 0x1E23 JUMP JUMPDEST SWAP1 POP SWAP2 SWAP1 POP JUMP JUMPDEST PUSH2 0x1E5E DUP2 PUSH2 0x1E43 JUMP JUMPDEST DUP3 MSTORE POP POP JUMP JUMPDEST PUSH1 0x0 PUSH1 0x20 DUP3 ADD SWAP1 POP PUSH2 0x1E79 PUSH1 0x0 DUP4 ADD DUP5 PUSH2 0x1E55 JUMP JUMPDEST SWAP3 SWAP2 POP POP JUMP JUMPDEST PUSH2 0x1E88 DUP2 PUSH2 0x1E43 JUMP JUMPDEST DUP2 EQ PUSH2 0x1E93 JUMPI PUSH1 0x0 DUP1 REVERT JUMPDEST POP JUMP JUMPDEST PUSH1 0x0 DUP2 CALLDATALOAD SWAP1 POP PUSH2 0x1EA5 DUP2 PUSH2 0x1E7F JUMP JUMPDEST SWAP3 SWAP2 POP POP JUMP JUMPDEST PUSH1 0x0 DUP1 PUSH1 0x40 DUP4 DUP6 SUB SLT ISZERO PUSH2 0x1EC2 JUMPI PUSH2 0x1EC1 PUSH2 0x1DA8 JUMP JUMPDEST JUMPDEST PUSH1 0x0 PUSH2 0x1ED0 DUP6 DUP3 DUP7 ADD PUSH2 0x1E96 JUMP JUMPDEST SWAP3 POP POP PUSH1 0x20 PUSH2 0x1EE1 DUP6 DUP3 DUP7 ADD PUSH2 0x1E96 JUMP JUMPDEST SWAP2 POP POP SWAP3 POP SWAP3 SWAP1 POP JUMP JUMPDEST PUSH2 0x1EF4 DUP2 PUSH2 0x1DAD JUMP JUMPDEST DUP3 MSTORE POP POP JUMP JUMPDEST PUSH1 0x0 PUSH1 0x20 DUP3 ADD SWAP1 POP PUSH2 0x1F0F PUSH1 0x0 DUP4 ADD DUP5 PUSH2 0x1EEB JUMP JUMPDEST SWAP3 SWAP2 POP POP JUMP JUMPDEST PUSH1 0x0 PUSH1 0x20 DUP3 DUP5 SUB SLT ISZERO PUSH2 0x1F2B JUMPI PUSH2 0x1F2A PUSH2 0x1DA8 JUMP JUMPDEST JUMPDEST PUSH1 0x0 PUSH2 0x1F39 DUP5 DUP3 DUP6 ADD PUSH2 0x1DCE JUMP JUMPDEST SWAP2 POP POP SWAP3 SWAP2 POP POP JUMP JUMPDEST PUSH1 0x0 PUSH1 0xFF DUP3 AND SWAP1 POP SWAP2 SWAP1 POP JUMP JUMPDEST PUSH2 0x1F58 DUP2 PUSH2 0x1F42 JUMP JUMPDEST DUP3 MSTORE POP POP JUMP JUMPDEST PUSH1 0x0 PUSH1 0xA0 DUP3 ADD SWAP1 POP PUSH2 0x1F73 PUSH1 0x0 DUP4 ADD DUP9 PUSH2 0x1E55 JUMP JUMPDEST PUSH2 0x1F80 PUSH1 0x20 DUP4 ADD DUP8 PUSH2 0x1E55 JUMP JUMPDEST PUSH2 0x1F8D PUSH1 0x40 DUP4 ADD DUP7 PUSH2 0x1F4F JUMP JUMPDEST PUSH2 0x1F9A PUSH1 0x60 DUP4 ADD DUP6 PUSH2 0x1F4F JUMP JUMPDEST PUSH2 0x1FA7 PUSH1 0x80 DUP4 ADD DUP5 PUSH2 0x1F4F JUMP JUMPDEST SWAP7 SWAP6 POP POP POP POP POP POP JUMP JUMPDEST PUSH1 0x0 DUP1 PUSH1 0x40 DUP4 DUP6 SUB SLT ISZERO PUSH2 0x1FC8 JUMPI PUSH2 0x1FC7 PUSH2 0x1DA8 JUMP JUMPDEST JUMPDEST PUSH1 0x0 PUSH2 0x1FD6 DUP6 DUP3 DUP7 ADD PUSH2 0x1DCE JUMP JUMPDEST SWAP3 POP POP PUSH1 0x20 PUSH2 0x1FE7 DUP6 DUP3 DUP7 ADD PUSH2 0x1E96 JUMP JUMPDEST SWAP2 POP POP SWAP3 POP SWAP3 SWAP1 POP JUMP JUMPDEST PUSH1 0x0 PUSH1 0x80 DUP3 ADD SWAP1 POP PUSH2 0x2006 PUSH1 0x0 DUP4 ADD DUP8 PUSH2 0x1EEB JUMP JUMPDEST PUSH2 0x2013 PUSH1 0x20 DUP4 ADD DUP7 PUSH2 0x1EEB JUMP JUMPDEST PUSH2 0x2020 PUSH1 0x40 DUP4 ADD DUP6 PUSH2 0x1EEB JUMP JUMPDEST PUSH2 0x202D PUSH1 0x60 DUP4 ADD DUP5 PUSH2 0x1EEB JUMP JUMPDEST SWAP6 SWAP5 POP POP POP POP POP JUMP JUMPDEST PUSH1 0x0 DUP1 PUSH1 0x0 DUP1 PUSH1 0x80 DUP6 DUP8 SUB SLT ISZERO PUSH2 0x2050 JUMPI PUSH2 0x204F PUSH2 0x1DA8 JUMP JUMPDEST JUMPDEST PUSH1 0x0 PUSH2 0x205E DUP8 DUP3 DUP9 ADD PUSH2 0x1DCE JUMP JUMPDEST SWAP5 POP POP PUSH1 0x20 PUSH2 0x206F DUP8 DUP3 DUP9 ADD PUSH2 0x1DCE JUMP JUMPDEST SWAP4 POP POP PUSH1 0x40 PUSH2 0x2080 DUP8 DUP3 DUP9 ADD PUSH2 0x1DCE JUMP JUMPDEST SWAP3 POP POP PUSH1 0x60 PUSH2 0x2091 DUP8 DUP3 DUP9 ADD PUSH2 0x1DCE JUMP JUMPDEST SWAP2 POP POP SWAP3 SWAP6 SWAP2 SWAP5 POP SWAP3 POP JUMP JUMPDEST PUSH2 0x20A6 DUP2 PUSH2 0x1F42 JUMP JUMPDEST DUP2 EQ PUSH2 0x20B1 JUMPI PUSH1 0x0 DUP1 REVERT JUMPDEST POP JUMP JUMPDEST PUSH1 0x0 DUP2 CALLDATALOAD SWAP1 POP PUSH2 0x20C3 DUP2 PUSH2 0x209D JUMP JUMPDEST SWAP3 SWAP2 POP POP JUMP JUMPDEST PUSH1 0x0 PUSH1 0x20 DUP3 DUP5 SUB SLT ISZERO PUSH2 0x20DF JUMPI PUSH2 0x20DE PUSH2 0x1DA8 JUMP JUMPDEST JUMPDEST PUSH1 0x0 PUSH2 0x20ED DUP5 DUP3 DUP6 ADD PUSH2 0x20B4 JUMP JUMPDEST SWAP2 POP POP SWAP3 SWAP2 POP POP JUMP JUMPDEST PUSH1 0x0 DUP3 DUP3 MSTORE PUSH1 0x20 DUP3 ADD SWAP1 POP SWAP3 SWAP2 POP POP JUMP JUMPDEST PUSH32 0x4576656E742066756C6C00000000000000000000000000000000000000000000 PUSH1 0x0 DUP3 ADD MSTORE POP JUMP JUMPDEST PUSH1 0x0 PUSH2 0x213D PUSH1 0xA DUP4 PUSH2 0x20F6 JUMP JUMPDEST SWAP2 POP PUSH2 0x2148 DUP3 PUSH2 0x2107 JUMP JUMPDEST PUSH1 0x20 DUP3 ADD SWAP1 POP SWAP2 SWAP1 POP JUMP JUMPDEST PUSH1 0x0 PUSH1 0x20 DUP3 ADD SWAP1 POP DUP2 DUP2 SUB PUSH1 0x0 DUP4 ADD MSTORE PUSH2 0x216C DUP2 PUSH2 0x2130 JUMP JUMPDEST SWAP1 POP SWAP2 SWAP1 POP JUMP JUMPDEST PUSH32 0x4D6F7265207374616B6520726571756972656400000000000000000000000000 PUSH1 0x0 DUP3 ADD MSTORE POP JUMP JUMPDEST PUSH1 0x0 PUSH2 0x21A9 PUSH1 0x13 DUP4 PUSH2 0x20F6 JUMP JUMPDEST SWAP2 POP PUSH2 0x21B4 DUP3 PUSH2 0x2173 JUMP JUMPDEST PUSH1 0x20 DUP3 ADD SWAP1 POP SWAP2 SWAP1 POP JUMP JUMPDEST PUSH1 0x0 PUSH1 0x20 DUP3 ADD SWAP1 POP DUP2 DUP2 SUB PUSH1 0x0 DUP4 ADD MSTORE PUSH2 0x21D8 DUP2 PUSH2 0x219C JUMP JUMPDEST SWAP1 POP SWAP2 SWAP1 POP JUMP JUMPDEST PUSH32 0x4E487B7100000000000000000000000000000000000000000000000000000000 PUSH1 0x0 MSTORE PUSH1 0x11 PUSH1 0x4 MSTORE PUSH1 0x24 PUSH1 0x0 REVERT JUMPDEST PUSH1 0x0 PUSH2 0x2219 DUP3 PUSH2 0x1DAD JUMP JUMPDEST SWAP2 POP PUSH32 0xFFFFFFFFFFFFFFFFFFFFFFFFFFFFFFFFFFFFFFFFFFFFFFFFFFFFFFFFFFFFFFFF DUP3 SUB PUSH2 0x224B JUMPI PUSH2 0x224A PUSH2 0x21DF JUMP JUMPDEST JUMPDEST PUSH1 0x1 DUP3 ADD SWAP1 POP SWAP2 SWAP1 POP JUMP JUMPDEST PUSH1 0x0 PUSH2 0x2261 DUP3 PUSH2 0x1DAD JUMP JUMPDEST SWAP2 POP PUSH2 0x226C DUP4 PUSH2 0x1DAD JUMP JUMPDEST SWAP3 POP DUP3 DUP3 SUB SWAP1 POP DUP2 DUP2 GT ISZERO PUSH2 0x2284 JUMPI PUSH2 0x2283 PUSH2 0x21DF JUMP JUMPDEST JUMPDEST SWAP3 SWAP2 POP POP JUMP JUMPDEST PUSH1 0x0 PUSH2 0x2295 DUP3 PUSH2 0x1DAD JUMP JUMPDEST SWAP2 POP PUSH2 0x22A0 DUP4 PUSH2 0x1DAD JUMP JUMPDEST SWAP3 POP DUP3 DUP3 ADD SWAP1 POP DUP1 DUP3 GT ISZERO PUSH2 0x22B8 JUMPI PUSH2 0x22B7 PUSH2 0x21DF JUMP JUMPDEST JUMPDEST SWAP3 SWAP2 POP POP JUMP JUMPDEST PUSH32 0x4E487B7100000000000000000000000000000000000000000000000000000000 PUSH1 0x0 MSTORE PUSH1 0x32 PUSH1 0x4 MSTORE PUSH1 0x24 PUSH1 0x0 REVERT JUMPDEST PUSH32 0x596F7520646F6E742068617665207065726D697373696F6E0000000000000000 PUSH1 0x0 DUP3 ADD MSTORE POP JUMP JUMPDEST PUSH1 0x0 PUSH2 0x2323 PUSH1 0x18 DUP4 PUSH2 0x20F6 JUMP JUMPDEST SWAP2 POP PUSH2 0x232E DUP3 PUSH2 0x22ED JUMP JUMPDEST PUSH1 0x20 DUP3 ADD SWAP1 POP SWAP2 SWAP1 POP JUMP JUMPDEST PUSH1 0x0 PUSH1 0x20 DUP3 ADD SWAP1 POP DUP2 DUP2 SUB PUSH1 0x0 DUP4 ADD MSTORE PUSH2 0x2352 DUP2 PUSH2 0x2316 JUMP JUMPDEST SWAP1 POP SWAP2 SWAP1 POP JUMP JUMPDEST PUSH1 0x0 PUSH2 0x2364 DUP3 PUSH2 0x1DAD JUMP JUMPDEST SWAP2 POP PUSH2 0x236F DUP4 PUSH2 0x1DAD JUMP JUMPDEST SWAP3 POP DUP3 DUP3 MUL PUSH2 0x237D DUP2 PUSH2 0x1DAD JUMP JUMPDEST SWAP2 POP DUP3 DUP3 DIV DUP5 EQ DUP4 ISZERO OR PUSH2 0x2394 JUMPI PUSH2 0x2393 PUSH2 0x21DF JUMP JUMPDEST JUMPDEST POP SWAP3 SWAP2 POP POP JUMP JUMPDEST PUSH32 0x4E487B7100000000000000000000000000000000000000000000000000000000 PUSH1 0x0 MSTORE PUSH1 0x12 PUSH1 0x4 MSTORE PUSH1 0x24 PUSH1 0x0 REVERT JUMPDEST PUSH1 0x0 PUSH2 0x23D5 DUP3 PUSH2 0x1DAD JUMP JUMPDEST SWAP2 POP PUSH2 0x23E0 DUP4 PUSH2 0x1DAD JUMP JUMPDEST SWAP3 POP DUP3 PUSH2 0x23F0 JUMPI PUSH2 0x23EF PUSH2 0x239B JUMP JUMPDEST JUMPDEST DUP3 DUP3 DIV SWAP1 POP SWAP3 SWAP2 POP POP JUMP INVALID LOG2 PUSH5 0x6970667358 0x22 SLT KECCAK256 ADDRESS PUSH6 0x7A9094000775 0x21 DUP12 MLOAD 0x4B STATICCALL 0xC1 0x27 0x25 0xF6 RETURN 0x27 PUSH24 0x72DA3DDFEDED304EC1D123A564736F6C6343000812003300 "},"methodIdentifiers":{"bet(uint256,uint256,uint256,uint256)":"567bb0b6","create_match(address,address)":"26cf1a32","current_match_id()":"2d23d0ed","distribute()":"e4fc6b6d","match_to_stakers(uint256,address)":"4830214e","match_to_stakers_list(uint256,uint256)":"08454e71","matches(uint256)":"4768d4ef","player1()":"d30895e4","player2()":"59a5f12d","register()":"1aa3a008","result()":"65372147","update_choice1(uint8)":"6410faa0","update_choice2(uint8)":"b02cfb4c"}}}}}